{
  "abi": [
    {
      "inputs": [],
      "stateMutability": "nonpayable",
      "type": "constructor"
    },
    {
      "inputs": [],
      "name": "BuyTickets",
      "outputs": [],
      "stateMutability": "payable",
      "type": "function"
    },
    {
      "inputs": [],
      "name": "CurrentWinningReward",
      "outputs": [
        {
          "internalType": "uint256",
          "name": "",
          "type": "uint256"
        }
      ],
      "stateMutability": "view",
      "type": "function"
    },
    {
      "inputs": [],
      "name": "DrawWinnerTicket",
      "outputs": [],
      "stateMutability": "nonpayable",
      "type": "function"
    },
    {
      "inputs": [],
      "name": "IsWinner",
      "outputs": [
        {
          "internalType": "bool",
          "name": "",
          "type": "bool"
        }
      ],
      "stateMutability": "view",
      "type": "function"
    },
    {
      "inputs": [],
      "name": "RefundAll",
      "outputs": [],
      "stateMutability": "nonpayable",
      "type": "function"
    },
    {
      "inputs": [],
      "name": "RemainingTickets",
      "outputs": [
        {
          "internalType": "uint256",
          "name": "",
          "type": "uint256"
        }
      ],
      "stateMutability": "view",
      "type": "function"
    },
    {
      "inputs": [],
      "name": "WithdrawCommission",
      "outputs": [],
      "stateMutability": "nonpayable",
      "type": "function"
    },
    {
      "inputs": [],
      "name": "WithdrawWinnings",
      "outputs": [],
      "stateMutability": "nonpayable",
      "type": "function"
    },
    {
      "inputs": [],
      "name": "checkWinningsAmount",
      "outputs": [
        {
          "internalType": "uint256",
          "name": "",
          "type": "uint256"
        }
      ],
      "stateMutability": "view",
      "type": "function"
    },
    {
      "inputs": [],
      "name": "expiration",
      "outputs": [
        {
          "internalType": "uint256",
          "name": "",
          "type": "uint256"
        }
      ],
      "stateMutability": "view",
      "type": "function"
    },
    {
      "inputs": [],
      "name": "getTickets",
      "outputs": [
        {
          "internalType": "address[]",
          "name": "",
          "type": "address[]"
        }
      ],
      "stateMutability": "view",
      "type": "function"
    },
    {
      "inputs": [
        {
          "internalType": "address",
          "name": "addr",
          "type": "address"
        }
      ],
      "name": "getWinningsForAddress",
      "outputs": [
        {
          "internalType": "uint256",
          "name": "",
          "type": "uint256"
        }
      ],
      "stateMutability": "view",
      "type": "function"
    },
    {
      "inputs": [],
      "name": "lastWinner",
      "outputs": [
        {
          "internalType": "address",
          "name": "",
          "type": "address"
        }
      ],
      "stateMutability": "view",
      "type": "function"
    },
    {
      "inputs": [],
      "name": "lastWinnerAmount",
      "outputs": [
        {
          "internalType": "uint256",
          "name": "",
          "type": "uint256"
        }
      ],
      "stateMutability": "view",
      "type": "function"
    },
    {
      "inputs": [],
      "name": "lotteryOperator",
      "outputs": [
        {
          "internalType": "address",
          "name": "",
          "type": "address"
        }
      ],
      "stateMutability": "view",
      "type": "function"
    },
    {
      "inputs": [],
      "name": "maxTickets",
      "outputs": [
        {
          "internalType": "uint256",
          "name": "",
          "type": "uint256"
        }
      ],
      "stateMutability": "view",
      "type": "function"
    },
    {
      "inputs": [],
      "name": "maxTicketsPerAddress",
      "outputs": [
        {
          "internalType": "uint256",
          "name": "",
          "type": "uint256"
        }
      ],
      "stateMutability": "view",
      "type": "function"
    },
    {
      "inputs": [],
      "name": "operatorTotalCommission",
      "outputs": [
        {
          "internalType": "uint256",
          "name": "",
          "type": "uint256"
        }
      ],
      "stateMutability": "view",
      "type": "function"
    },
    {
      "inputs": [],
      "name": "restartDraw",
      "outputs": [],
      "stateMutability": "nonpayable",
      "type": "function"
    },
    {
      "inputs": [
        {
          "internalType": "uint256",
          "name": "newMaxTicketsPerAddress",
          "type": "uint256"
        }
      ],
      "name": "setMaxTicketsPerAddress",
      "outputs": [],
      "stateMutability": "nonpayable",
      "type": "function"
    },
    {
      "inputs": [],
      "name": "ticketCommission",
      "outputs": [
        {
          "internalType": "uint256",
          "name": "",
          "type": "uint256"
        }
      ],
      "stateMutability": "view",
      "type": "function"
    },
    {
      "inputs": [],
      "name": "ticketPrice",
      "outputs": [
        {
          "internalType": "uint256",
          "name": "",
          "type": "uint256"
        }
      ],
      "stateMutability": "view",
      "type": "function"
    },
    {
      "inputs": [
        {
          "internalType": "uint256",
          "name": "",
          "type": "uint256"
        }
      ],
      "name": "tickets",
      "outputs": [
        {
          "internalType": "address",
          "name": "",
          "type": "address"
        }
      ],
      "stateMutability": "view",
      "type": "function"
    },
    {
      "inputs": [
        {
          "internalType": "uint256",
          "name": "newTicketPriceInEther",
          "type": "uint256"
        },
        {
          "internalType": "uint256",
          "name": "newMaxTickets",
          "type": "uint256"
        },
        {
          "internalType": "uint256",
          "name": "newTicketCommissionInEther",
          "type": "uint256"
        }
      ],
      "name": "updateLotteryParams",
      "outputs": [],
      "stateMutability": "nonpayable",
      "type": "function"
    },
    {
      "inputs": [
        {
          "internalType": "address",
          "name": "",
          "type": "address"
        }
      ],
      "name": "winnings",
      "outputs": [
        {
          "internalType": "uint256",
          "name": "",
          "type": "uint256"
        }
      ],
      "stateMutability": "view",
      "type": "function"
    }
  ],
  "devdoc": {
    "kind": "dev",
    "methods": {},
    "version": 1
  },
  "evm": {
    "assembly": "    /* \"Anntdraw.sol\":128:6202  contract Lottery {... */\n  mstore(0x40, 0x80)\n    /* \"Anntdraw.sol\":181:191  0.01 ether */\n  0x2386f26fc10000\n    /* \"Anntdraw.sol\":152:191  uint256 public ticketPrice = 0.01 ether */\n  0x00\n  sstore\n    /* \"Anntdraw.sol\":226:229  150 */\n  0x96\n    /* \"Anntdraw.sol\":198:229  uint256 public maxTickets = 150 */\n  0x01\n  sstore\n    /* \"Anntdraw.sol\":301:312  0.001 ether */\n  0x038d7ea4c68000\n    /* \"Anntdraw.sol\":267:312  uint256 public ticketCommission = 0.001 ether */\n  0x02\n  sstore\n    /* \"Anntdraw.sol\":371:383  5040 minutes */\n  0x049d40\n    /* \"Anntdraw.sol\":344:383  uint256 private duration = 5040 minutes */\n  0x03\n  sstore\n    /* \"Anntdraw.sol\":464:465  5 */\n  0x05\n    /* \"Anntdraw.sol\":426:465  uint256 public maxTicketsPerAddress = 5 */\n  0x04\n  sstore\n    /* \"Anntdraw.sol\":716:717  0 */\n  0x00\n    /* \"Anntdraw.sol\":675:717  uint256 public operatorTotalCommission = 0 */\n  0x07\n  sstore\n    /* \"Anntdraw.sol\":2098:2209  constructor() {... */\n  callvalue\n  dup1\n  iszero\n  tag_1\n  jumpi\n  0x00\n  dup1\n  revert\ntag_1:\n  pop\n    /* \"Anntdraw.sol\":2123:2138  lotteryOperator */\n  0x06\n    /* \"Anntdraw.sol\":2123:2151  lotteryOperator = msg.sender */\n  dup1\n  sload\n  not(sub(shl(0xa0, 0x01), 0x01))\n  and\n    /* \"Anntdraw.sol\":2141:2151  msg.sender */\n  caller\n    /* \"Anntdraw.sol\":2123:2151  lotteryOperator = msg.sender */\n  or\n  swap1\n  sstore\n    /* \"Anntdraw.sol\":2193:2201  duration */\n  sload(0x03)\n    /* \"Anntdraw.sol\":2175:2201  block.timestamp + duration */\n  tag_4\n  swap1\n    /* \"Anntdraw.sol\":2175:2190  block.timestamp */\n  timestamp\n    /* \"Anntdraw.sol\":2175:2201  block.timestamp + duration */\n  tag_5\n  jump\t// in\ntag_4:\n    /* \"Anntdraw.sol\":2162:2172  expiration */\n  0x05\n    /* \"Anntdraw.sol\":2162:2201  expiration = block.timestamp + duration */\n  sstore\n    /* \"Anntdraw.sol\":128:6202  contract Lottery {... */\n  jump(tag_7)\n    /* \"#utility.yul\":14:236   */\ntag_5:\n    /* \"#utility.yul\":79:88   */\n  dup1\n  dup3\n  add\n    /* \"#utility.yul\":100:110   */\n  dup1\n  dup3\n  gt\n    /* \"#utility.yul\":97:230   */\n  iszero\n  tag_9\n  jumpi\n    /* \"#utility.yul\":152:162   */\n  0x4e487b71\n    /* \"#utility.yul\":147:150   */\n  0xe0\n    /* \"#utility.yul\":143:163   */\n  shl\n    /* \"#utility.yul\":140:141   */\n  0x00\n    /* \"#utility.yul\":133:164   */\n  mstore\n    /* \"#utility.yul\":187:191   */\n  0x11\n    /* \"#utility.yul\":184:185   */\n  0x04\n    /* \"#utility.yul\":177:192   */\n  mstore\n    /* \"#utility.yul\":215:219   */\n  0x24\n    /* \"#utility.yul\":212:213   */\n  0x00\n    /* \"#utility.yul\":205:220   */\n  revert\n    /* \"#utility.yul\":97:230   */\ntag_9:\n    /* \"#utility.yul\":14:236   */\n  swap3\n  swap2\n  pop\n  pop\n  jump\t// out\ntag_7:\n    /* \"Anntdraw.sol\":128:6202  contract Lottery {... */\n  dataSize(sub_0)\n  dup1\n  dataOffset(sub_0)\n  0x00\n  codecopy\n  0x00\n  return\nstop\n\nsub_0: assembly {\n        /* \"Anntdraw.sol\":128:6202  contract Lottery {... */\n      mstore(0x40, 0x80)\n      jumpi(tag_1, lt(calldatasize, 0x04))\n      shr(0xe0, calldataload(0x00))\n      dup1\n      0x91d8b14e\n      gt\n      tag_27\n      jumpi\n      dup1\n      0xa88f4672\n      gt\n      tag_28\n      jumpi\n      dup1\n      0xdd64e534\n      gt\n      tag_29\n      jumpi\n      dup1\n      0xdd64e534\n      eq\n      tag_23\n      jumpi\n      dup1\n      0xea3a1499\n      eq\n      tag_24\n      jumpi\n      dup1\n      0xf2613269\n      eq\n      tag_25\n      jumpi\n      dup1\n      0xfe188184\n      eq\n      tag_26\n      jumpi\n      0x00\n      dup1\n      revert\n    tag_29:\n      dup1\n      0xa88f4672\n      eq\n      tag_20\n      jumpi\n      dup1\n      0xba946d79\n      eq\n      tag_21\n      jumpi\n      dup1\n      0xc6944fa0\n      eq\n      tag_22\n      jumpi\n      0x00\n      dup1\n      revert\n    tag_28:\n      dup1\n      0x9802cf2f\n      gt\n      tag_30\n      jumpi\n      dup1\n      0x9802cf2f\n      eq\n      tag_17\n      jumpi\n      dup1\n      0x9b478ab0\n      eq\n      tag_18\n      jumpi\n      dup1\n      0x9b894703\n      eq\n      tag_19\n      jumpi\n      0x00\n      dup1\n      revert\n    tag_30:\n      dup1\n      0x91d8b14e\n      eq\n      tag_14\n      jumpi\n      dup1\n      0x93a563b5\n      eq\n      tag_15\n      jumpi\n      dup1\n      0x96c85ef3\n      eq\n      tag_16\n      jumpi\n      0x00\n      dup1\n      revert\n    tag_27:\n      dup1\n      0x4788af7c\n      gt\n      tag_31\n      jumpi\n      dup1\n      0x5a58acdd\n      gt\n      tag_32\n      jumpi\n      dup1\n      0x5a58acdd\n      eq\n      tag_11\n      jumpi\n      dup1\n      0x6032a4f9\n      eq\n      tag_12\n      jumpi\n      dup1\n      0x71827b7b\n      eq\n      tag_13\n      jumpi\n      0x00\n      dup1\n      revert\n    tag_32:\n      dup1\n      0x4788af7c\n      eq\n      tag_8\n      jumpi\n      dup1\n      0x4ed02622\n      eq\n      tag_9\n      jumpi\n      dup1\n      0x50b44712\n      eq\n      tag_10\n      jumpi\n      0x00\n      dup1\n      revert\n    tag_31:\n      dup1\n      0x35580df2\n      gt\n      tag_33\n      jumpi\n      dup1\n      0x35580df2\n      eq\n      tag_5\n      jumpi\n      dup1\n      0x463a94a5\n      eq\n      tag_6\n      jumpi\n      dup1\n      0x4665096d\n      eq\n      tag_7\n      jumpi\n      0x00\n      dup1\n      revert\n    tag_33:\n      dup1\n      0x06f7f3bf\n      eq\n      tag_2\n      jumpi\n      dup1\n      0x0789c607\n      eq\n      tag_3\n      jumpi\n      dup1\n      0x1209b1f6\n      eq\n      tag_4\n      jumpi\n    tag_1:\n      0x00\n      dup1\n      revert\n        /* \"Anntdraw.sol\":822:853  uint256 public lastWinnerAmount */\n    tag_2:\n      callvalue\n      dup1\n      iszero\n      tag_34\n      jumpi\n      0x00\n      dup1\n      revert\n    tag_34:\n      pop\n      tag_35\n      sload(0x09)\n      dup2\n      jump\n    tag_35:\n      mload(0x40)\n        /* \"#utility.yul\":160:185   */\n      swap1\n      dup2\n      mstore\n        /* \"#utility.yul\":148:150   */\n      0x20\n        /* \"#utility.yul\":133:151   */\n      add\n        /* \"Anntdraw.sol\":822:853  uint256 public lastWinnerAmount */\n    tag_37:\n      mload(0x40)\n      dup1\n      swap2\n      sub\n      swap1\n      return\n        /* \"Anntdraw.sol\":4765:4979  function checkWinningsAmount() public view returns (uint256) {... */\n    tag_3:\n      callvalue\n      dup1\n      iszero\n      tag_39\n      jumpi\n      0x00\n      dup1\n      revert\n    tag_39:\n      pop\n        /* \"Anntdraw.sol\":4870:4880  msg.sender */\n      caller\n        /* \"Anntdraw.sol\":4817:4824  uint256 */\n      0x00\n        /* \"Anntdraw.sol\":4920:4936  winnings[winner] */\n      swap1\n      dup2\n      mstore\n        /* \"Anntdraw.sol\":4920:4928  winnings */\n      0x0a\n        /* \"Anntdraw.sol\":4920:4936  winnings[winner] */\n      0x20\n      mstore\n      0x40\n      swap1\n      keccak256\n      sload\n        /* \"Anntdraw.sol\":4765:4979  function checkWinningsAmount() public view returns (uint256) {... */\n      jump(tag_35)\n        /* \"Anntdraw.sol\":152:191  uint256 public ticketPrice = 0.01 ether */\n    tag_4:\n      callvalue\n      dup1\n      iszero\n      tag_43\n      jumpi\n      0x00\n      dup1\n      revert\n    tag_43:\n      pop\n      tag_35\n      sload(0x00)\n      dup2\n      jump\n        /* \"Anntdraw.sol\":5583:5851  function WithdrawCommission() public isOperator {... */\n    tag_5:\n      callvalue\n      dup1\n      iszero\n      tag_47\n      jumpi\n      0x00\n      dup1\n      revert\n    tag_47:\n      pop\n      tag_48\n      tag_49\n      jump\t// in\n    tag_48:\n      stop\n        /* \"Anntdraw.sol\":426:465  uint256 public maxTicketsPerAddress = 5 */\n    tag_6:\n      callvalue\n      dup1\n      iszero\n      tag_50\n      jumpi\n      0x00\n      dup1\n      revert\n    tag_50:\n      pop\n      tag_35\n      sload(0x04)\n      dup2\n      jump\n        /* \"Anntdraw.sol\":520:545  uint256 public expiration */\n    tag_7:\n      callvalue\n      dup1\n      iszero\n      tag_54\n      jumpi\n      0x00\n      dup1\n      revert\n    tag_54:\n      pop\n      tag_35\n      sload(0x05)\n      dup2\n      jump\n        /* \"Anntdraw.sol\":3804:4542  function DrawWinnerTicket() public isOperator {... */\n    tag_8:\n      callvalue\n      dup1\n      iszero\n      tag_58\n      jumpi\n      0x00\n      dup1\n      revert\n    tag_58:\n      pop\n      tag_48\n      tag_60\n      jump\t// in\n        /* \"Anntdraw.sol\":2248:2342  function getTickets() public view returns (address[] memory) {... */\n    tag_9:\n      callvalue\n      dup1\n      iszero\n      tag_61\n      jumpi\n      0x00\n      dup1\n      revert\n    tag_61:\n      pop\n      tag_62\n      tag_63\n      jump\t// in\n    tag_62:\n      mload(0x40)\n      tag_37\n      swap2\n      swap1\n      tag_65\n      jump\t// in\n        /* \"Anntdraw.sol\":991:1015  address[] public tickets */\n    tag_10:\n      callvalue\n      dup1\n      iszero\n      tag_66\n      jumpi\n      0x00\n      dup1\n      revert\n    tag_66:\n      pop\n      tag_67\n      tag_68\n      calldatasize\n      0x04\n      tag_69\n      jump\t// in\n    tag_68:\n      tag_70\n      jump\t// in\n    tag_67:\n      mload(0x40)\n      sub(shl(0xa0, 0x01), 0x01)\n        /* \"#utility.yul\":1231:1286   */\n      swap1\n      swap2\n      and\n        /* \"#utility.yul\":1213:1287   */\n      dup2\n      mstore\n        /* \"#utility.yul\":1201:1203   */\n      0x20\n        /* \"#utility.yul\":1186:1204   */\n      add\n        /* \"Anntdraw.sol\":991:1015  address[] public tickets */\n      tag_37\n        /* \"#utility.yul\":1067:1293   */\n      jump\n        /* \"Anntdraw.sol\":609:639  address public lotteryOperator */\n    tag_11:\n      callvalue\n      dup1\n      iszero\n      tag_73\n      jumpi\n      0x00\n      dup1\n      revert\n    tag_73:\n      pop\n      sload(0x06)\n      tag_67\n      swap1\n      sub(shl(0xa0, 0x01), 0x01)\n      and\n      dup2\n      jump\n        /* \"Anntdraw.sol\":267:312  uint256 public ticketCommission = 0.001 ether */\n    tag_12:\n      callvalue\n      dup1\n      iszero\n      tag_77\n      jumpi\n      0x00\n      dup1\n      revert\n    tag_77:\n      pop\n      tag_35\n      sload(0x02)\n      dup2\n      jump\n        /* \"Anntdraw.sol\":4987:5225  function WithdrawWinnings() public isWinner {... */\n    tag_13:\n      callvalue\n      dup1\n      iszero\n      tag_81\n      jumpi\n      0x00\n      dup1\n      revert\n    tag_81:\n      pop\n      tag_48\n      tag_83\n      jump\t// in\n        /* \"Anntdraw.sol\":2782:3796  function BuyTickets() public payable {... */\n    tag_14:\n      tag_48\n      tag_85\n      jump\t// in\n        /* \"Anntdraw.sol\":6088:6199  function RemainingTickets() public view returns (uint256) {... */\n    tag_15:\n      callvalue\n      dup1\n      iszero\n      tag_86\n      jumpi\n      0x00\n      dup1\n      revert\n    tag_86:\n      pop\n      tag_35\n      tag_88\n      jump\t// in\n        /* \"Anntdraw.sol\":5859:5956  function IsWinner() public view returns (bool) {... */\n    tag_16:\n      callvalue\n      dup1\n      iszero\n      tag_90\n      jumpi\n      0x00\n      dup1\n      revert\n    tag_90:\n      pop\n        /* \"Anntdraw.sol\":5933:5943  msg.sender */\n      caller\n        /* \"Anntdraw.sol\":5900:5904  bool */\n      0x00\n        /* \"Anntdraw.sol\":5924:5944  winnings[msg.sender] */\n      swap1\n      dup2\n      mstore\n        /* \"Anntdraw.sol\":5924:5932  winnings */\n      0x0a\n        /* \"Anntdraw.sol\":5924:5944  winnings[msg.sender] */\n      0x20\n      mstore\n      0x40\n      swap1\n      keccak256\n      sload\n        /* \"Anntdraw.sol\":5924:5948  winnings[msg.sender] > 0 */\n      iszero\n      iszero\n        /* \"Anntdraw.sol\":5859:5956  function IsWinner() public view returns (bool) {... */\n      mload(0x40)\n        /* \"#utility.yul\":1463:1477   */\n      swap1\n      iszero\n        /* \"#utility.yul\":1456:1478   */\n      iszero\n        /* \"#utility.yul\":1438:1479   */\n      dup2\n      mstore\n        /* \"#utility.yul\":1426:1428   */\n      0x20\n        /* \"#utility.yul\":1411:1429   */\n      add\n        /* \"Anntdraw.sol\":5859:5956  function IsWinner() public view returns (bool) {... */\n      tag_37\n        /* \"#utility.yul\":1298:1485   */\n      jump\n        /* \"Anntdraw.sol\":1771:1938  function setMaxTicketsPerAddress(... */\n    tag_17:\n      callvalue\n      dup1\n      iszero\n      tag_95\n      jumpi\n      0x00\n      dup1\n      revert\n    tag_95:\n      pop\n      tag_48\n      tag_97\n      calldatasize\n      0x04\n      tag_69\n      jump\t// in\n    tag_97:\n      tag_98\n      jump\t// in\n        /* \"Anntdraw.sol\":1372:1692  function updateLotteryParams(... */\n    tag_18:\n      callvalue\n      dup1\n      iszero\n      tag_99\n      jumpi\n      0x00\n      dup1\n      revert\n    tag_99:\n      pop\n      tag_48\n      tag_101\n      calldatasize\n      0x04\n      tag_102\n      jump\t// in\n    tag_101:\n      tag_103\n      jump\t// in\n        /* \"Anntdraw.sol\":198:229  uint256 public maxTickets = 150 */\n    tag_19:\n      callvalue\n      dup1\n      iszero\n      tag_104\n      jumpi\n      0x00\n      dup1\n      revert\n    tag_104:\n      pop\n      tag_35\n      sload(0x01)\n      dup2\n      jump\n        /* \"Anntdraw.sol\":5233:5575  function RefundAll() public {... */\n    tag_20:\n      callvalue\n      dup1\n      iszero\n      tag_108\n      jumpi\n      0x00\n      dup1\n      revert\n    tag_108:\n      pop\n      tag_48\n      tag_110\n      jump\t// in\n        /* \"Anntdraw.sol\":675:717  uint256 public operatorTotalCommission = 0 */\n    tag_21:\n      callvalue\n      dup1\n      iszero\n      tag_111\n      jumpi\n      0x00\n      dup1\n      revert\n    tag_111:\n      pop\n      tag_35\n      sload(0x07)\n      dup2\n      jump\n        /* \"Anntdraw.sol\":5964:6080  function CurrentWinningReward() public view returns (uint256) {... */\n    tag_22:\n      callvalue\n      dup1\n      iszero\n      tag_115\n      jumpi\n      0x00\n      dup1\n      revert\n    tag_115:\n      pop\n      tag_35\n      tag_117\n      jump\t// in\n        /* \"Anntdraw.sol\":2350:2465  function getWinningsForAddress(address addr) public view returns (uint256) {... */\n    tag_23:\n      callvalue\n      dup1\n      iszero\n      tag_119\n      jumpi\n      0x00\n      dup1\n      revert\n    tag_119:\n      pop\n      tag_35\n      tag_121\n      calldatasize\n      0x04\n      tag_122\n      jump\t// in\n    tag_121:\n      sub(shl(0xa0, 0x01), 0x01)\n        /* \"Anntdraw.sol\":2443:2457  winnings[addr] */\n      and\n        /* \"Anntdraw.sol\":2416:2423  uint256 */\n      0x00\n        /* \"Anntdraw.sol\":2443:2457  winnings[addr] */\n      swap1\n      dup2\n      mstore\n        /* \"Anntdraw.sol\":2443:2451  winnings */\n      0x0a\n        /* \"Anntdraw.sol\":2443:2457  winnings[addr] */\n      0x20\n      mstore\n      0x40\n      swap1\n      keccak256\n      sload\n      swap1\n        /* \"Anntdraw.sol\":2350:2465  function getWinningsForAddress(address addr) public view returns (uint256) {... */\n      jump\n        /* \"Anntdraw.sol\":903:946  mapping(address => uint256) public winnings */\n    tag_24:\n      callvalue\n      dup1\n      iszero\n      tag_125\n      jumpi\n      0x00\n      dup1\n      revert\n    tag_125:\n      pop\n      tag_35\n      tag_127\n      calldatasize\n      0x04\n      tag_122\n      jump\t// in\n    tag_127:\n      mstore(0x20, 0x0a)\n      0x00\n      swap1\n      dup2\n      mstore\n      0x40\n      swap1\n      keccak256\n      sload\n      dup2\n      jump\n        /* \"Anntdraw.sol\":4550:4757  function restartDraw() public isOperator {... */\n    tag_25:\n      callvalue\n      dup1\n      iszero\n      tag_130\n      jumpi\n      0x00\n      dup1\n      revert\n    tag_130:\n      pop\n      tag_48\n      tag_132\n      jump\t// in\n        /* \"Anntdraw.sol\":756:781  address public lastWinner */\n    tag_26:\n      callvalue\n      dup1\n      iszero\n      tag_133\n      jumpi\n      0x00\n      dup1\n      revert\n    tag_133:\n      pop\n      sload(0x08)\n      tag_67\n      swap1\n      sub(shl(0xa0, 0x01), 0x01)\n      and\n      dup2\n      jump\n        /* \"Anntdraw.sol\":5583:5851  function WithdrawCommission() public isOperator {... */\n    tag_49:\n        /* \"Anntdraw.sol\":1183:1198  lotteryOperator */\n      and(sub(shl(0xa0, 0x01), 0x01), sload(0x06))\n        /* \"Anntdraw.sol\":1169:1179  msg.sender */\n      caller\n        /* \"Anntdraw.sol\":1169:1198  msg.sender == lotteryOperator */\n      eq\n        /* \"Anntdraw.sol\":1146:1261  require(... */\n      tag_139\n      jumpi\n      mload(0x40)\n      shl(0xe5, 0x461bcd)\n      dup2\n      mstore\n        /* \"#utility.yul\":2327:2329   */\n      0x20\n        /* \"Anntdraw.sol\":1146:1261  require(... */\n      0x04\n      dup3\n      add\n        /* \"#utility.yul\":2309:2330   */\n      mstore\n        /* \"#utility.yul\":2366:2368   */\n      0x22\n        /* \"#utility.yul\":2346:2364   */\n      0x24\n      dup3\n      add\n        /* \"#utility.yul\":2339:2369   */\n      mstore\n        /* \"#utility.yul\":2405:2439   */\n      0x43616c6c6572206973206e6f7420746865206c6f7474657279206f7065726174\n        /* \"#utility.yul\":2385:2403   */\n      0x44\n      dup3\n      add\n        /* \"#utility.yul\":2378:2440   */\n      mstore\n      shl(0xf1, 0x37b9)\n        /* \"#utility.yul\":2456:2474   */\n      0x64\n      dup3\n      add\n        /* \"#utility.yul\":2449:2481   */\n      mstore\n        /* \"#utility.yul\":2498:2517   */\n      0x84\n      add\n        /* \"Anntdraw.sol\":1146:1261  require(... */\n    tag_140:\n      mload(0x40)\n      dup1\n      swap2\n      sub\n      swap1\n      revert\n    tag_139:\n        /* \"Anntdraw.sol\":5731:5754  operatorTotalCommission */\n      0x07\n      dup1\n      sload\n        /* \"Anntdraw.sol\":5642:5666  address payable operator */\n      0x00\n        /* \"Anntdraw.sol\":5765:5792  operatorTotalCommission = 0 */\n      swap2\n      dup3\n      swap1\n      sstore\n        /* \"Anntdraw.sol\":5805:5843  operator.transfer(commission2Transfer) */\n      mload(0x40)\n        /* \"Anntdraw.sol\":5677:5687  msg.sender */\n      caller\n      swap3\n      dup4\n      swap2\n        /* \"Anntdraw.sol\":5805:5843  operator.transfer(commission2Transfer) */\n      dup4\n      iszero\n      0x08fc\n      mul\n      swap2\n        /* \"Anntdraw.sol\":5731:5754  operatorTotalCommission */\n      dup5\n      swap2\n        /* \"Anntdraw.sol\":5805:5843  operator.transfer(commission2Transfer) */\n      swap1\n      dup2\n        /* \"Anntdraw.sol\":5642:5666  address payable operator */\n      dup2\n        /* \"Anntdraw.sol\":5805:5843  operator.transfer(commission2Transfer) */\n      dup2\n        /* \"Anntdraw.sol\":5731:5754  operatorTotalCommission */\n      dup6\n        /* \"Anntdraw.sol\":5677:5687  msg.sender */\n      dup9\n        /* \"Anntdraw.sol\":5805:5843  operator.transfer(commission2Transfer) */\n      dup9\n      call\n      swap4\n      pop\n      pop\n      pop\n      pop\n      iszero\n      dup1\n      iszero\n      tag_144\n      jumpi\n      returndatasize\n      0x00\n      dup1\n      returndatacopy\n      revert(0x00, returndatasize)\n    tag_144:\n      pop\n        /* \"Anntdraw.sol\":5631:5851  {... */\n      pop\n      pop\n        /* \"Anntdraw.sol\":5583:5851  function WithdrawCommission() public isOperator {... */\n      jump\t// out\n        /* \"Anntdraw.sol\":3804:4542  function DrawWinnerTicket() public isOperator {... */\n    tag_60:\n        /* \"Anntdraw.sol\":1183:1198  lotteryOperator */\n      and(sub(shl(0xa0, 0x01), 0x01), sload(0x06))\n        /* \"Anntdraw.sol\":1169:1179  msg.sender */\n      caller\n        /* \"Anntdraw.sol\":1169:1198  msg.sender == lotteryOperator */\n      eq\n        /* \"Anntdraw.sol\":1146:1261  require(... */\n      tag_146\n      jumpi\n      mload(0x40)\n      shl(0xe5, 0x461bcd)\n      dup2\n      mstore\n        /* \"#utility.yul\":2327:2329   */\n      0x20\n        /* \"Anntdraw.sol\":1146:1261  require(... */\n      0x04\n      dup3\n      add\n        /* \"#utility.yul\":2309:2330   */\n      mstore\n        /* \"#utility.yul\":2366:2368   */\n      0x22\n        /* \"#utility.yul\":2346:2364   */\n      0x24\n      dup3\n      add\n        /* \"#utility.yul\":2339:2369   */\n      mstore\n        /* \"#utility.yul\":2405:2439   */\n      0x43616c6c6572206973206e6f7420746865206c6f7474657279206f7065726174\n        /* \"#utility.yul\":2385:2403   */\n      0x44\n      dup3\n      add\n        /* \"#utility.yul\":2378:2440   */\n      mstore\n      shl(0xf1, 0x37b9)\n        /* \"#utility.yul\":2456:2474   */\n      0x64\n      dup3\n      add\n        /* \"#utility.yul\":2449:2481   */\n      mstore\n        /* \"#utility.yul\":2498:2517   */\n      0x84\n      add\n        /* \"Anntdraw.sol\":1146:1261  require(... */\n      tag_140\n        /* \"#utility.yul\":2125:2523   */\n      jump\n        /* \"Anntdraw.sol\":1146:1261  require(... */\n    tag_146:\n        /* \"Anntdraw.sol\":3869:3876  tickets */\n      0x0b\n        /* \"Anntdraw.sol\":3869:3883  tickets.length */\n      sload\n        /* \"Anntdraw.sol\":3861:3917  require(tickets.length > 0, \"No tickets were purchased\") */\n      tag_149\n      jumpi\n      mload(0x40)\n      shl(0xe5, 0x461bcd)\n      dup2\n      mstore\n        /* \"#utility.yul\":2730:2732   */\n      0x20\n        /* \"Anntdraw.sol\":3861:3917  require(tickets.length > 0, \"No tickets were purchased\") */\n      0x04\n      dup3\n      add\n        /* \"#utility.yul\":2712:2733   */\n      mstore\n        /* \"#utility.yul\":2769:2771   */\n      0x19\n        /* \"#utility.yul\":2749:2767   */\n      0x24\n      dup3\n      add\n        /* \"#utility.yul\":2742:2772   */\n      mstore\n        /* \"#utility.yul\":2808:2835   */\n      0x4e6f207469636b65747320776572652070757263686173656400000000000000\n        /* \"#utility.yul\":2788:2806   */\n      0x44\n      dup3\n      add\n        /* \"#utility.yul\":2781:2836   */\n      mstore\n        /* \"#utility.yul\":2853:2871   */\n      0x64\n      add\n        /* \"Anntdraw.sol\":3861:3917  require(tickets.length > 0, \"No tickets were purchased\") */\n      tag_140\n        /* \"#utility.yul\":2528:2877   */\n      jump\n        /* \"Anntdraw.sol\":3861:3917  require(tickets.length > 0, \"No tickets were purchased\") */\n    tag_149:\n        /* \"Anntdraw.sol\":3975:3982  tickets */\n      0x0b\n        /* \"Anntdraw.sol\":3975:3989  tickets.length */\n      sload\n        /* \"Anntdraw.sol\":3930:3947  bytes32 blockHash */\n      0x00\n      swap1\n        /* \"Anntdraw.sol\":3960:3989  block.number - tickets.length */\n      tag_152\n      swap1\n        /* \"Anntdraw.sol\":3960:3972  block.number */\n      number\n        /* \"Anntdraw.sol\":3960:3989  block.number - tickets.length */\n      tag_153\n      jump\t// in\n    tag_152:\n        /* \"Anntdraw.sol\":4056:4100  abi.encodePacked(block.timestamp, blockHash) */\n      0x40\n      dup1\n      mload\n        /* \"Anntdraw.sol\":4073:4088  block.timestamp */\n      timestamp\n        /* \"Anntdraw.sol\":4056:4100  abi.encodePacked(block.timestamp, blockHash) */\n      0x20\n      dup3\n      add\n        /* \"#utility.yul\":3304:3323   */\n      mstore\n        /* \"Anntdraw.sol\":3950:3990  blockhash(block.number - tickets.length) */\n      swap2\n      blockhash\n        /* \"#utility.yul\":3339:3351   */\n      swap1\n      dup3\n      add\n        /* \"#utility.yul\":3332:3360   */\n      dup2\n      swap1\n      mstore\n        /* \"Anntdraw.sol\":3950:3990  blockhash(block.number - tickets.length) */\n      swap2\n      pop\n        /* \"Anntdraw.sol\":4001:4021  uint256 randomNumber */\n      0x00\n      swap1\n        /* \"#utility.yul\":3376:3388   */\n      0x60\n      add\n        /* \"Anntdraw.sol\":4056:4100  abi.encodePacked(block.timestamp, blockHash) */\n      0x40\n      dup1\n      mload\n      not(0x1f)\n      dup2\n      dup5\n      sub\n      add\n      dup2\n      mstore\n      swap2\n      swap1\n      mstore\n        /* \"Anntdraw.sol\":4046:4101  keccak256(abi.encodePacked(block.timestamp, blockHash)) */\n      dup1\n      mload\n        /* \"Anntdraw.sol\":4056:4100  abi.encodePacked(block.timestamp, blockHash) */\n      0x20\n        /* \"Anntdraw.sol\":4046:4101  keccak256(abi.encodePacked(block.timestamp, blockHash)) */\n      swap1\n      swap2\n      add\n      keccak256\n        /* \"Anntdraw.sol\":4162:4169  tickets */\n      0x0b\n        /* \"Anntdraw.sol\":4162:4176  tickets.length */\n      sload\n        /* \"Anntdraw.sol\":4046:4101  keccak256(abi.encodePacked(block.timestamp, blockHash)) */\n      swap1\n      swap2\n      pop\n        /* \"Anntdraw.sol\":4024:4112  uint256(... */\n      0x00\n      swap1\n        /* \"Anntdraw.sol\":4147:4176  randomNumber % tickets.length */\n      tag_156\n      swap1\n        /* \"Anntdraw.sol\":4046:4101  keccak256(abi.encodePacked(block.timestamp, blockHash)) */\n      dup4\n        /* \"Anntdraw.sol\":4147:4176  randomNumber % tickets.length */\n      tag_157\n      jump\t// in\n    tag_156:\n        /* \"Anntdraw.sol\":4123:4176  uint256 winningTicket = randomNumber % tickets.length */\n      swap1\n      pop\n        /* \"Anntdraw.sol\":4189:4203  address winner */\n      0x00\n        /* \"Anntdraw.sol\":4206:4213  tickets */\n      0x0b\n        /* \"Anntdraw.sol\":4214:4227  winningTicket */\n      dup3\n        /* \"Anntdraw.sol\":4206:4228  tickets[winningTicket] */\n      dup2\n      sload\n      dup2\n      lt\n      tag_159\n      jumpi\n      tag_159\n      tag_160\n      jump\t// in\n    tag_159:\n      0x00\n      swap2\n      dup3\n      mstore\n      0x20\n      dup3\n      keccak256\n      add\n      sload\n        /* \"Anntdraw.sol\":4239:4249  lastWinner */\n      0x08\n        /* \"Anntdraw.sol\":4239:4258  lastWinner = winner */\n      dup1\n      sload\n      not(0xffffffffffffffffffffffffffffffffffffffff)\n      and\n      sub(shl(0xa0, 0x01), 0x01)\n        /* \"Anntdraw.sol\":4206:4228  tickets[winningTicket] */\n      swap1\n      swap3\n      and\n        /* \"Anntdraw.sol\":4239:4258  lastWinner = winner */\n      swap2\n      dup3\n      or\n      swap1\n      sstore\n        /* \"Anntdraw.sol\":4322:4338  ticketCommission */\n      sload(0x02)\n        /* \"Anntdraw.sol\":4308:4319  ticketPrice */\n      swap2\n      sload\n        /* \"Anntdraw.sol\":4206:4228  tickets[winningTicket] */\n      swap1\n      swap3\n      pop\n        /* \"Anntdraw.sol\":4308:4338  ticketPrice - ticketCommission */\n      tag_162\n      swap2\n        /* \"Anntdraw.sol\":4322:4338  ticketCommission */\n      swap1\n        /* \"Anntdraw.sol\":4308:4338  ticketPrice - ticketCommission */\n      tag_153\n      jump\t// in\n    tag_162:\n        /* \"Anntdraw.sol\":4290:4297  tickets */\n      0x0b\n        /* \"Anntdraw.sol\":4290:4304  tickets.length */\n      sload\n        /* \"Anntdraw.sol\":4290:4339  tickets.length * (ticketPrice - ticketCommission) */\n      tag_163\n      swap2\n      swap1\n      tag_164\n      jump\t// in\n    tag_163:\n      sub(shl(0xa0, 0x01), 0x01)\n        /* \"Anntdraw.sol\":4269:4285  winnings[winner] */\n      dup3\n      and\n      0x00\n      swap1\n      dup2\n      mstore\n        /* \"Anntdraw.sol\":4269:4277  winnings */\n      0x0a\n        /* \"Anntdraw.sol\":4269:4285  winnings[winner] */\n      0x20\n      mstore\n      0x40\n      dup2\n      keccak256\n        /* \"Anntdraw.sol\":4269:4340  winnings[winner] += (tickets.length * (ticketPrice - ticketCommission)) */\n      dup1\n      sload\n        /* \"Anntdraw.sol\":4269:4285  winnings[winner] */\n      swap1\n      swap2\n      swap1\n        /* \"Anntdraw.sol\":4269:4340  winnings[winner] += (tickets.length * (ticketPrice - ticketCommission)) */\n      tag_165\n      swap1\n      dup5\n      swap1\n      tag_166\n      jump\t// in\n    tag_165:\n      swap1\n      swap2\n      sstore\n      pop\n      pop\n      sub(shl(0xa0, 0x01), 0x01)\n        /* \"Anntdraw.sol\":4370:4386  winnings[winner] */\n      dup2\n      and\n      0x00\n      swap1\n      dup2\n      mstore\n        /* \"Anntdraw.sol\":4370:4378  winnings */\n      0x0a\n        /* \"Anntdraw.sol\":4370:4386  winnings[winner] */\n      0x20\n      mstore\n      0x40\n      swap1\n      keccak256\n      sload\n        /* \"Anntdraw.sol\":4351:4367  lastWinnerAmount */\n      0x09\n        /* \"Anntdraw.sol\":4351:4386  lastWinnerAmount = winnings[winner] */\n      sstore\n        /* \"Anntdraw.sol\":4442:4458  ticketCommission */\n      sload(0x02)\n        /* \"Anntdraw.sol\":4425:4432  tickets */\n      0x0b\n        /* \"Anntdraw.sol\":4425:4439  tickets.length */\n      sload\n        /* \"Anntdraw.sol\":4425:4458  tickets.length * ticketCommission */\n      tag_167\n      swap2\n        /* \"Anntdraw.sol\":4442:4458  ticketCommission */\n      swap1\n        /* \"Anntdraw.sol\":4425:4458  tickets.length * ticketCommission */\n      tag_164\n      jump\t// in\n    tag_167:\n        /* \"Anntdraw.sol\":4397:4420  operatorTotalCommission */\n      0x07\n      0x00\n        /* \"Anntdraw.sol\":4397:4459  operatorTotalCommission += (tickets.length * ticketCommission) */\n      dup3\n      dup3\n      sload\n      tag_168\n      swap2\n      swap1\n      tag_166\n      jump\t// in\n    tag_168:\n      swap1\n      swap2\n      sstore\n      pop\n        /* \"Anntdraw.sol\":4470:4484  delete tickets */\n      tag_169\n      swap1\n      pop\n        /* \"Anntdraw.sol\":4477:4484  tickets */\n      0x0b\n      0x00\n        /* \"Anntdraw.sol\":4470:4484  delete tickets */\n      tag_170\n      jump\t// in\n    tag_169:\n        /* \"Anntdraw.sol\":4526:4534  duration */\n      sload(0x03)\n        /* \"Anntdraw.sol\":4508:4534  block.timestamp + duration */\n      tag_171\n      swap1\n        /* \"Anntdraw.sol\":4508:4523  block.timestamp */\n      timestamp\n        /* \"Anntdraw.sol\":4508:4534  block.timestamp + duration */\n      tag_166\n      jump\t// in\n    tag_171:\n        /* \"Anntdraw.sol\":4495:4505  expiration */\n      0x05\n        /* \"Anntdraw.sol\":4495:4534  expiration = block.timestamp + duration */\n      sstore\n      pop\n      pop\n      pop\n      pop\n        /* \"Anntdraw.sol\":3804:4542  function DrawWinnerTicket() public isOperator {... */\n      jump\t// out\n        /* \"Anntdraw.sol\":2248:2342  function getTickets() public view returns (address[] memory) {... */\n    tag_63:\n        /* \"Anntdraw.sol\":2291:2307  address[] memory */\n      0x60\n        /* \"Anntdraw.sol\":2327:2334  tickets */\n      0x0b\n        /* \"Anntdraw.sol\":2320:2334  return tickets */\n      dup1\n      sload\n      dup1\n      0x20\n      mul\n      0x20\n      add\n      mload(0x40)\n      swap1\n      dup2\n      add\n      0x40\n      mstore\n      dup1\n      swap3\n      swap2\n      swap1\n      dup2\n      dup2\n      mstore\n      0x20\n      add\n      dup3\n      dup1\n      sload\n      dup1\n      iszero\n      tag_173\n      jumpi\n      0x20\n      mul\n      dup3\n      add\n      swap2\n      swap1\n      0x00\n      mstore\n      keccak256(0x00, 0x20)\n      swap1\n    tag_174:\n      dup2\n      sload\n      sub(shl(0xa0, 0x01), 0x01)\n      and\n      dup2\n      mstore\n      0x01\n      swap1\n      swap2\n      add\n      swap1\n      0x20\n      add\n      dup1\n      dup4\n      gt\n      tag_174\n      jumpi\n    tag_173:\n      pop\n      pop\n      pop\n      pop\n      pop\n      swap1\n      pop\n        /* \"Anntdraw.sol\":2248:2342  function getTickets() public view returns (address[] memory) {... */\n      swap1\n      jump\t// out\n        /* \"Anntdraw.sol\":991:1015  address[] public tickets */\n    tag_70:\n      0x0b\n      dup2\n      dup2\n      sload\n      dup2\n      lt\n      tag_175\n      jumpi\n      0x00\n      dup1\n      revert\n    tag_175:\n      0x00\n      swap2\n      dup3\n      mstore\n      0x20\n      swap1\n      swap2\n      keccak256\n      add\n      sload\n      sub(shl(0xa0, 0x01), 0x01)\n      and\n      swap1\n      pop\n      dup2\n      jump\t// out\n        /* \"Anntdraw.sol\":4987:5225  function WithdrawWinnings() public isWinner {... */\n    tag_83:\n        /* \"Anntdraw.sol\":5933:5943  msg.sender */\n      caller\n        /* \"Anntdraw.sol\":5900:5904  bool */\n      0x00\n        /* \"Anntdraw.sol\":5924:5944  winnings[msg.sender] */\n      swap1\n      dup2\n      mstore\n        /* \"Anntdraw.sol\":5924:5932  winnings */\n      0x0a\n        /* \"Anntdraw.sol\":5924:5944  winnings[msg.sender] */\n      0x20\n      mstore\n      0x40\n      swap1\n      keccak256\n      sload\n        /* \"Anntdraw.sol\":2025:2070  require(IsWinner(), \"Caller is not a winner\") */\n      tag_179\n      jumpi\n      mload(0x40)\n      shl(0xe5, 0x461bcd)\n      dup2\n      mstore\n        /* \"#utility.yul\":4285:4287   */\n      0x20\n        /* \"Anntdraw.sol\":2025:2070  require(IsWinner(), \"Caller is not a winner\") */\n      0x04\n      dup3\n      add\n        /* \"#utility.yul\":4267:4288   */\n      mstore\n        /* \"#utility.yul\":4324:4326   */\n      0x16\n        /* \"#utility.yul\":4304:4322   */\n      0x24\n      dup3\n      add\n        /* \"#utility.yul\":4297:4327   */\n      mstore\n        /* \"#utility.yul\":4363:4387   */\n      0x43616c6c6572206973206e6f7420612077696e6e657200000000000000000000\n        /* \"#utility.yul\":4343:4361   */\n      0x44\n      dup3\n      add\n        /* \"#utility.yul\":4336:4388   */\n      mstore\n        /* \"#utility.yul\":4405:4423   */\n      0x64\n      add\n        /* \"Anntdraw.sol\":2025:2070  require(IsWinner(), \"Caller is not a winner\") */\n      tag_140\n        /* \"#utility.yul\":4083:4429   */\n      jump\n        /* \"Anntdraw.sol\":2025:2070  require(IsWinner(), \"Caller is not a winner\") */\n    tag_179:\n        /* \"Anntdraw.sol\":5075:5085  msg.sender */\n      caller\n        /* \"Anntdraw.sol\":5042:5064  address payable winner */\n      0x00\n        /* \"Anntdraw.sol\":5125:5141  winnings[winner] */\n      dup2\n      dup2\n      mstore\n        /* \"Anntdraw.sol\":5125:5133  winnings */\n      0x0a\n        /* \"Anntdraw.sol\":5125:5141  winnings[winner] */\n      0x20\n      mstore\n      0x40\n      dup1\n      dup3\n      keccak256\n      dup1\n      sload\n        /* \"Anntdraw.sol\":5152:5172  winnings[winner] = 0 */\n      swap1\n      dup4\n      swap1\n      sstore\n        /* \"Anntdraw.sol\":5185:5217  winner.transfer(reward2Transfer) */\n      swap1\n      mload\n        /* \"Anntdraw.sol\":5125:5141  winnings[winner] */\n      swap1\n      swap2\n        /* \"Anntdraw.sol\":5075:5085  msg.sender */\n      dup4\n      swap2\n        /* \"Anntdraw.sol\":5185:5217  winner.transfer(reward2Transfer) */\n      dup4\n      iszero\n      0x08fc\n      mul\n      swap2\n        /* \"Anntdraw.sol\":5125:5141  winnings[winner] */\n      dup5\n      swap2\n        /* \"Anntdraw.sol\":5185:5217  winner.transfer(reward2Transfer) */\n      swap1\n      dup2\n        /* \"Anntdraw.sol\":5042:5064  address payable winner */\n      dup2\n        /* \"Anntdraw.sol\":5185:5217  winner.transfer(reward2Transfer) */\n      dup2\n        /* \"Anntdraw.sol\":5125:5141  winnings[winner] */\n      dup6\n        /* \"Anntdraw.sol\":5075:5085  msg.sender */\n      dup9\n        /* \"Anntdraw.sol\":5185:5217  winner.transfer(reward2Transfer) */\n      dup9\n      call\n      swap4\n      pop\n      pop\n      pop\n      pop\n      iszero\n      dup1\n      iszero\n      tag_144\n      jumpi\n      returndatasize\n      0x00\n      dup1\n      returndatacopy\n      revert(0x00, returndatasize)\n        /* \"Anntdraw.sol\":2782:3796  function BuyTickets() public payable {... */\n    tag_85:\n        /* \"Anntdraw.sol\":2834:2841  tickets */\n      0x0b\n        /* \"Anntdraw.sol\":2834:2848  tickets.length */\n      sload\n        /* \"Anntdraw.sol\":2834:2853  tickets.length == 0 */\n      iszero\n        /* \"Anntdraw.sol\":2834:2886  tickets.length == 0 && block.timestamp >= expiration */\n      dup1\n      iszero\n      tag_186\n      jumpi\n      pop\n        /* \"Anntdraw.sol\":2876:2886  expiration */\n      sload(0x05)\n        /* \"Anntdraw.sol\":2857:2872  block.timestamp */\n      timestamp\n        /* \"Anntdraw.sol\":2857:2886  block.timestamp >= expiration */\n      lt\n      iszero\n        /* \"Anntdraw.sol\":2834:2886  tickets.length == 0 && block.timestamp >= expiration */\n    tag_186:\n        /* \"Anntdraw.sol\":2830:3050  if (tickets.length == 0 && block.timestamp >= expiration) {... */\n      iszero\n      tag_187\n      jumpi\n        /* \"Anntdraw.sol\":3030:3038  duration */\n      sload(0x03)\n        /* \"Anntdraw.sol\":3012:3038  block.timestamp + duration */\n      tag_188\n      swap1\n        /* \"Anntdraw.sol\":3012:3027  block.timestamp */\n      timestamp\n        /* \"Anntdraw.sol\":3012:3038  block.timestamp + duration */\n      tag_166\n      jump\t// in\n    tag_188:\n        /* \"Anntdraw.sol\":2999:3009  expiration */\n      0x05\n        /* \"Anntdraw.sol\":2999:3038  expiration = block.timestamp + duration */\n      sstore\n        /* \"Anntdraw.sol\":2830:3050  if (tickets.length == 0 && block.timestamp >= expiration) {... */\n    tag_187:\n        /* \"Anntdraw.sol\":3096:3107  ticketPrice */\n      sload(0x00)\n        /* \"Anntdraw.sol\":3084:3107  msg.value % ticketPrice */\n      tag_189\n      swap1\n        /* \"Anntdraw.sol\":3084:3093  msg.value */\n      callvalue\n        /* \"Anntdraw.sol\":3084:3107  msg.value % ticketPrice */\n      tag_157\n      jump\t// in\n    tag_189:\n        /* \"Anntdraw.sol\":3111:3112  0 */\n      0x00\n        /* \"Anntdraw.sol\":3084:3112  msg.value % ticketPrice == 0 */\n      eq\n        /* \"Anntdraw.sol\":3210:3239  Strings.toString(ticketPrice) */\n      tag_190\n        /* \"Anntdraw.sol\":3227:3238  ticketPrice */\n      sload(0x00)\n        /* \"Anntdraw.sol\":3210:3226  Strings.toString */\n      tag_191\n        /* \"Anntdraw.sol\":3210:3239  Strings.toString(ticketPrice) */\n      jump\t// in\n    tag_190:\n        /* \"Anntdraw.sol\":3127:3281  string.concat(... */\n      add(0x20, mload(0x40))\n      tag_192\n      swap2\n      swap1\n      tag_193\n      jump\t// in\n    tag_192:\n      mload(0x40)\n      0x20\n      dup2\n      dup4\n      sub\n      sub\n      dup2\n      mstore\n      swap1\n      0x40\n      mstore\n        /* \"Anntdraw.sol\":3062:3292  require(... */\n      swap1\n      tag_194\n      jumpi\n      mload(0x40)\n      shl(0xe5, 0x461bcd)\n      dup2\n      mstore\n      0x04\n      add\n      tag_140\n      swap2\n      swap1\n      tag_196\n      jump\t// in\n    tag_194:\n      pop\n        /* \"Anntdraw.sol\":3303:3328  uint256 numOfTicketsToBuy */\n      0x00\n        /* \"Anntdraw.sol\":3343:3354  ticketPrice */\n      dup1\n      sload\n        /* \"Anntdraw.sol\":3331:3354  msg.value / ticketPrice */\n      tag_197\n      swap1\n        /* \"Anntdraw.sol\":3331:3340  msg.value */\n      callvalue\n        /* \"Anntdraw.sol\":3331:3354  msg.value / ticketPrice */\n      tag_198\n      jump\t// in\n    tag_197:\n        /* \"Anntdraw.sol\":3303:3354  uint256 numOfTicketsToBuy = msg.value / ticketPrice */\n      swap1\n      pop\n        /* \"Anntdraw.sol\":3410:3428  RemainingTickets() */\n      tag_199\n        /* \"Anntdraw.sol\":3410:3426  RemainingTickets */\n      tag_88\n        /* \"Anntdraw.sol\":3410:3428  RemainingTickets() */\n      jump\t// in\n    tag_199:\n        /* \"Anntdraw.sol\":3389:3406  numOfTicketsToBuy */\n      dup2\n        /* \"Anntdraw.sol\":3389:3428  numOfTicketsToBuy <= RemainingTickets() */\n      gt\n      iszero\n        /* \"Anntdraw.sol\":3367:3485  require(... */\n      tag_200\n      jumpi\n      mload(0x40)\n      shl(0xe5, 0x461bcd)\n      dup2\n      mstore\n        /* \"#utility.yul\":6023:6025   */\n      0x20\n        /* \"Anntdraw.sol\":3367:3485  require(... */\n      0x04\n      dup3\n      add\n        /* \"#utility.yul\":6005:6026   */\n      mstore\n        /* \"#utility.yul\":6062:6064   */\n      0x1d\n        /* \"#utility.yul\":6042:6060   */\n      0x24\n      dup3\n      add\n        /* \"#utility.yul\":6035:6065   */\n      mstore\n        /* \"#utility.yul\":6101:6132   */\n      0x4e6f7420656e6f756768207469636b65747320617661696c61626c652e000000\n        /* \"#utility.yul\":6081:6099   */\n      0x44\n      dup3\n      add\n        /* \"#utility.yul\":6074:6133   */\n      mstore\n        /* \"#utility.yul\":6150:6168   */\n      0x64\n      add\n        /* \"Anntdraw.sol\":3367:3485  require(... */\n      tag_140\n        /* \"#utility.yul\":5821:6174   */\n      jump\n        /* \"Anntdraw.sol\":3367:3485  require(... */\n    tag_200:\n        /* \"Anntdraw.sol\":3596:3616  maxTicketsPerAddress */\n      sload(0x04)\n        /* \"Anntdraw.sol\":3558:3575  numOfTicketsToBuy */\n      dup2\n        /* \"Anntdraw.sol\":3520:3555  getNumTicketsPerAddress(msg.sender) */\n      tag_203\n        /* \"Anntdraw.sol\":3544:3554  msg.sender */\n      caller\n        /* \"Anntdraw.sol\":3520:3543  getNumTicketsPerAddress */\n      tag_204\n        /* \"Anntdraw.sol\":3520:3555  getNumTicketsPerAddress(msg.sender) */\n      jump\t// in\n    tag_203:\n        /* \"Anntdraw.sol\":3520:3575  getNumTicketsPerAddress(msg.sender) + numOfTicketsToBuy */\n      tag_205\n      swap2\n      swap1\n      tag_166\n      jump\t// in\n    tag_205:\n        /* \"Anntdraw.sol\":3520:3616  getNumTicketsPerAddress(msg.sender) + numOfTicketsToBuy <=... */\n      gt\n      iszero\n        /* \"Anntdraw.sol\":3498:3677  require(... */\n      tag_206\n      jumpi\n      mload(0x40)\n      shl(0xe5, 0x461bcd)\n      dup2\n      mstore\n        /* \"#utility.yul\":6381:6383   */\n      0x20\n        /* \"Anntdraw.sol\":3498:3677  require(... */\n      0x04\n      dup3\n      add\n        /* \"#utility.yul\":6363:6384   */\n      mstore\n        /* \"#utility.yul\":6420:6422   */\n      0x21\n        /* \"#utility.yul\":6400:6418   */\n      0x24\n      dup3\n      add\n        /* \"#utility.yul\":6393:6423   */\n      mstore\n        /* \"#utility.yul\":6459:6493   */\n      0x4d6178207469636b657473207065722061646472657373206578636565646564\n        /* \"#utility.yul\":6439:6457   */\n      0x44\n      dup3\n      add\n        /* \"#utility.yul\":6432:6494   */\n      mstore\n      shl(0xf9, 0x17)\n        /* \"#utility.yul\":6510:6528   */\n      0x64\n      dup3\n      add\n        /* \"#utility.yul\":6503:6534   */\n      mstore\n        /* \"#utility.yul\":6551:6570   */\n      0x84\n      add\n        /* \"Anntdraw.sol\":3498:3677  require(... */\n      tag_140\n        /* \"#utility.yul\":6179:6576   */\n      jump\n        /* \"Anntdraw.sol\":3498:3677  require(... */\n    tag_206:\n        /* \"Anntdraw.sol\":3695:3704  uint256 i */\n      0x00\n        /* \"Anntdraw.sol\":3690:3789  for (uint256 i = 0; i < numOfTicketsToBuy; i++) {... */\n    tag_209:\n        /* \"Anntdraw.sol\":3714:3731  numOfTicketsToBuy */\n      dup2\n        /* \"Anntdraw.sol\":3710:3711  i */\n      dup2\n        /* \"Anntdraw.sol\":3710:3731  i < numOfTicketsToBuy */\n      lt\n        /* \"Anntdraw.sol\":3690:3789  for (uint256 i = 0; i < numOfTicketsToBuy; i++) {... */\n      iszero\n      tag_210\n      jumpi\n        /* \"Anntdraw.sol\":3753:3760  tickets */\n      0x0b\n        /* \"Anntdraw.sol\":3753:3777  tickets.push(msg.sender) */\n      dup1\n      sload\n      0x01\n      dup2\n      add\n      dup3\n      sstore\n      0x00\n      swap2\n      swap1\n      swap2\n      mstore\n      0x0175b7a638427703f0dbe7bb9bbf987a2551717b34e79f33b5b1008d1fa01db9\n      add\n      dup1\n      sload\n      not(0xffffffffffffffffffffffffffffffffffffffff)\n      and\n        /* \"Anntdraw.sol\":3766:3776  msg.sender */\n      caller\n        /* \"Anntdraw.sol\":3753:3777  tickets.push(msg.sender) */\n      or\n      swap1\n      sstore\n        /* \"Anntdraw.sol\":3733:3736  i++ */\n      dup1\n      tag_213\n      dup2\n      tag_214\n      jump\t// in\n    tag_213:\n      swap2\n      pop\n      pop\n        /* \"Anntdraw.sol\":3690:3789  for (uint256 i = 0; i < numOfTicketsToBuy; i++) {... */\n      jump(tag_209)\n    tag_210:\n      pop\n        /* \"Anntdraw.sol\":2819:3796  {... */\n      pop\n        /* \"Anntdraw.sol\":2782:3796  function BuyTickets() public payable {... */\n      jump\t// out\n        /* \"Anntdraw.sol\":6088:6199  function RemainingTickets() public view returns (uint256) {... */\n    tag_88:\n        /* \"Anntdraw.sol\":6177:6184  tickets */\n      0x0b\n        /* \"Anntdraw.sol\":6177:6191  tickets.length */\n      sload\n        /* \"Anntdraw.sol\":6164:6174  maxTickets */\n      sload(0x01)\n        /* \"Anntdraw.sol\":6137:6144  uint256 */\n      0x00\n      swap2\n        /* \"Anntdraw.sol\":6164:6191  maxTickets - tickets.length */\n      tag_216\n      swap2\n      tag_153\n      jump\t// in\n    tag_216:\n        /* \"Anntdraw.sol\":6157:6191  return maxTickets - tickets.length */\n      swap1\n      pop\n        /* \"Anntdraw.sol\":6088:6199  function RemainingTickets() public view returns (uint256) {... */\n      swap1\n      jump\t// out\n        /* \"Anntdraw.sol\":1771:1938  function setMaxTicketsPerAddress(... */\n    tag_98:\n        /* \"Anntdraw.sol\":1183:1198  lotteryOperator */\n      and(sub(shl(0xa0, 0x01), 0x01), sload(0x06))\n        /* \"Anntdraw.sol\":1169:1179  msg.sender */\n      caller\n        /* \"Anntdraw.sol\":1169:1198  msg.sender == lotteryOperator */\n      eq\n        /* \"Anntdraw.sol\":1146:1261  require(... */\n      tag_219\n      jumpi\n      mload(0x40)\n      shl(0xe5, 0x461bcd)\n      dup2\n      mstore\n        /* \"#utility.yul\":2327:2329   */\n      0x20\n        /* \"Anntdraw.sol\":1146:1261  require(... */\n      0x04\n      dup3\n      add\n        /* \"#utility.yul\":2309:2330   */\n      mstore\n        /* \"#utility.yul\":2366:2368   */\n      0x22\n        /* \"#utility.yul\":2346:2364   */\n      0x24\n      dup3\n      add\n        /* \"#utility.yul\":2339:2369   */\n      mstore\n        /* \"#utility.yul\":2405:2439   */\n      0x43616c6c6572206973206e6f7420746865206c6f7474657279206f7065726174\n        /* \"#utility.yul\":2385:2403   */\n      0x44\n      dup3\n      add\n        /* \"#utility.yul\":2378:2440   */\n      mstore\n      shl(0xf1, 0x37b9)\n        /* \"#utility.yul\":2456:2474   */\n      0x64\n      dup3\n      add\n        /* \"#utility.yul\":2449:2481   */\n      mstore\n        /* \"#utility.yul\":2498:2517   */\n      0x84\n      add\n        /* \"Anntdraw.sol\":1146:1261  require(... */\n      tag_140\n        /* \"#utility.yul\":2125:2523   */\n      jump\n        /* \"Anntdraw.sol\":1146:1261  require(... */\n    tag_219:\n        /* \"Anntdraw.sol\":1884:1904  maxTicketsPerAddress */\n      0x04\n        /* \"Anntdraw.sol\":1884:1930  maxTicketsPerAddress = newMaxTicketsPerAddress */\n      sstore\n        /* \"Anntdraw.sol\":1771:1938  function setMaxTicketsPerAddress(... */\n      jump\t// out\n        /* \"Anntdraw.sol\":1372:1692  function updateLotteryParams(... */\n    tag_103:\n        /* \"Anntdraw.sol\":1183:1198  lotteryOperator */\n      and(sub(shl(0xa0, 0x01), 0x01), sload(0x06))\n        /* \"Anntdraw.sol\":1169:1179  msg.sender */\n      caller\n        /* \"Anntdraw.sol\":1169:1198  msg.sender == lotteryOperator */\n      eq\n        /* \"Anntdraw.sol\":1146:1261  require(... */\n      tag_223\n      jumpi\n      mload(0x40)\n      shl(0xe5, 0x461bcd)\n      dup2\n      mstore\n        /* \"#utility.yul\":2327:2329   */\n      0x20\n        /* \"Anntdraw.sol\":1146:1261  require(... */\n      0x04\n      dup3\n      add\n        /* \"#utility.yul\":2309:2330   */\n      mstore\n        /* \"#utility.yul\":2366:2368   */\n      0x22\n        /* \"#utility.yul\":2346:2364   */\n      0x24\n      dup3\n      add\n        /* \"#utility.yul\":2339:2369   */\n      mstore\n        /* \"#utility.yul\":2405:2439   */\n      0x43616c6c6572206973206e6f7420746865206c6f7474657279206f7065726174\n        /* \"#utility.yul\":2385:2403   */\n      0x44\n      dup3\n      add\n        /* \"#utility.yul\":2378:2440   */\n      mstore\n      shl(0xf1, 0x37b9)\n        /* \"#utility.yul\":2456:2474   */\n      0x64\n      dup3\n      add\n        /* \"#utility.yul\":2449:2481   */\n      mstore\n        /* \"#utility.yul\":2498:2517   */\n      0x84\n      add\n        /* \"Anntdraw.sol\":1146:1261  require(... */\n      tag_140\n        /* \"#utility.yul\":2125:2523   */\n      jump\n        /* \"Anntdraw.sol\":1146:1261  require(... */\n    tag_223:\n        /* \"Anntdraw.sol\":1556:1567  ticketPrice */\n      0x00\n        /* \"Anntdraw.sol\":1556:1591  ticketPrice = newTicketPriceInEther */\n      swap3\n      swap1\n      swap3\n      sstore\n        /* \"Anntdraw.sol\":1602:1612  maxTickets */\n      0x01\n        /* \"Anntdraw.sol\":1602:1628  maxTickets = newMaxTickets */\n      sstore\n        /* \"Anntdraw.sol\":1639:1655  ticketCommission */\n      0x02\n        /* \"Anntdraw.sol\":1639:1684  ticketCommission = newTicketCommissionInEther */\n      sstore\n        /* \"Anntdraw.sol\":1372:1692  function updateLotteryParams(... */\n      jump\t// out\n        /* \"Anntdraw.sol\":5233:5575  function RefundAll() public {... */\n    tag_110:\n        /* \"Anntdraw.sol\":5299:5309  expiration */\n      sload(0x05)\n        /* \"Anntdraw.sol\":5280:5295  block.timestamp */\n      timestamp\n        /* \"Anntdraw.sol\":5280:5309  block.timestamp >= expiration */\n      lt\n      iszero\n        /* \"Anntdraw.sol\":5272:5341  require(block.timestamp >= expiration, \"the lottery not expired yet\") */\n      tag_227\n      jumpi\n      mload(0x40)\n      shl(0xe5, 0x461bcd)\n      dup2\n      mstore\n        /* \"#utility.yul\":6923:6925   */\n      0x20\n        /* \"Anntdraw.sol\":5272:5341  require(block.timestamp >= expiration, \"the lottery not expired yet\") */\n      0x04\n      dup3\n      add\n        /* \"#utility.yul\":6905:6926   */\n      mstore\n        /* \"#utility.yul\":6962:6964   */\n      0x1b\n        /* \"#utility.yul\":6942:6960   */\n      0x24\n      dup3\n      add\n        /* \"#utility.yul\":6935:6965   */\n      mstore\n        /* \"#utility.yul\":7001:7030   */\n      0x746865206c6f7474657279206e6f742065787069726564207965740000000000\n        /* \"#utility.yul\":6981:6999   */\n      0x44\n      dup3\n      add\n        /* \"#utility.yul\":6974:7031   */\n      mstore\n        /* \"#utility.yul\":7048:7066   */\n      0x64\n      add\n        /* \"Anntdraw.sol\":5272:5341  require(block.timestamp >= expiration, \"the lottery not expired yet\") */\n      tag_140\n        /* \"#utility.yul\":6721:7072   */\n      jump\n        /* \"Anntdraw.sol\":5272:5341  require(block.timestamp >= expiration, \"the lottery not expired yet\") */\n    tag_227:\n        /* \"Anntdraw.sol\":5359:5368  uint256 i */\n      0x00\n        /* \"Anntdraw.sol\":5354:5543  for (uint256 i = 0; i < tickets.length; i++) {... */\n    tag_230:\n        /* \"Anntdraw.sol\":5378:5385  tickets */\n      0x0b\n        /* \"Anntdraw.sol\":5378:5392  tickets.length */\n      sload\n        /* \"Anntdraw.sol\":5374:5392  i < tickets.length */\n      dup2\n      lt\n        /* \"Anntdraw.sol\":5354:5543  for (uint256 i = 0; i < tickets.length; i++) {... */\n      iszero\n      tag_231\n      jumpi\n        /* \"Anntdraw.sol\":5414:5432  address payable to */\n      0x00\n        /* \"Anntdraw.sol\":5443:5450  tickets */\n      0x0b\n        /* \"Anntdraw.sol\":5451:5452  i */\n      dup3\n        /* \"Anntdraw.sol\":5443:5453  tickets[i] */\n      dup2\n      sload\n      dup2\n      lt\n      tag_234\n      jumpi\n      tag_234\n      tag_160\n      jump\t// in\n    tag_234:\n      0x00\n      swap2\n      dup3\n      mstore\n      0x20\n      dup3\n      keccak256\n      add\n      sload\n        /* \"Anntdraw.sol\":5469:5476  tickets */\n      0x0b\n        /* \"Anntdraw.sol\":5469:5479  tickets[i] */\n      dup1\n      sload\n      sub(shl(0xa0, 0x01), 0x01)\n        /* \"Anntdraw.sol\":5443:5453  tickets[i] */\n      swap1\n      swap3\n      and\n      swap4\n      pop\n        /* \"Anntdraw.sol\":5469:5476  tickets */\n      swap1\n        /* \"Anntdraw.sol\":5477:5478  i */\n      dup5\n      swap1\n        /* \"Anntdraw.sol\":5469:5479  tickets[i] */\n      dup2\n      lt\n      tag_237\n      jumpi\n      tag_237\n      tag_160\n      jump\t// in\n    tag_237:\n      0x00\n      swap2\n      dup3\n      mstore\n      0x20\n      dup3\n      keccak256\n      add\n        /* \"Anntdraw.sol\":5469:5492  tickets[i] = address(0) */\n      dup1\n      sload\n      not(0xffffffffffffffffffffffffffffffffffffffff)\n      and\n      sub(shl(0xa0, 0x01), 0x01)\n      swap4\n      dup5\n      and\n      or\n      swap1\n      sstore\n        /* \"Anntdraw.sol\":5519:5530  ticketPrice */\n      dup1\n      sload\n        /* \"Anntdraw.sol\":5507:5531  to.transfer(ticketPrice) */\n      mload(0x40)\n        /* \"Anntdraw.sol\":5507:5518  to.transfer */\n      swap3\n      dup5\n      and\n      swap3\n        /* \"Anntdraw.sol\":5507:5531  to.transfer(ticketPrice) */\n      0x08fc\n      dup3\n      iszero\n      mul\n      swap3\n      dup2\n        /* \"Anntdraw.sol\":5469:5479  tickets[i] */\n      dup2\n        /* \"Anntdraw.sol\":5507:5531  to.transfer(ticketPrice) */\n      dup2\n        /* \"Anntdraw.sol\":5519:5530  ticketPrice */\n      dup6\n        /* \"Anntdraw.sol\":5507:5518  to.transfer */\n      dup9\n        /* \"Anntdraw.sol\":5507:5531  to.transfer(ticketPrice) */\n      dup9\n      call\n      swap4\n      pop\n      pop\n      pop\n      pop\n      iszero\n      dup1\n      iszero\n      tag_240\n      jumpi\n      returndatasize\n      0x00\n      dup1\n      returndatacopy\n      revert(0x00, returndatasize)\n    tag_240:\n      pop\n        /* \"Anntdraw.sol\":5399:5543  {... */\n      pop\n        /* \"Anntdraw.sol\":5394:5397  i++ */\n      dup1\n      dup1\n      tag_241\n      swap1\n      tag_214\n      jump\t// in\n    tag_241:\n      swap2\n      pop\n      pop\n        /* \"Anntdraw.sol\":5354:5543  for (uint256 i = 0; i < tickets.length; i++) {... */\n      jump(tag_230)\n    tag_231:\n      pop\n        /* \"Anntdraw.sol\":5553:5567  delete tickets */\n      tag_242\n        /* \"Anntdraw.sol\":5560:5567  tickets */\n      0x0b\n      0x00\n        /* \"Anntdraw.sol\":5553:5567  delete tickets */\n      tag_170\n      jump\t// in\n    tag_242:\n        /* \"Anntdraw.sol\":5233:5575  function RefundAll() public {... */\n      jump\t// out\n        /* \"Anntdraw.sol\":5964:6080  function CurrentWinningReward() public view returns (uint256) {... */\n    tag_117:\n        /* \"Anntdraw.sol\":6017:6024  uint256 */\n      0x00\n        /* \"Anntdraw.sol\":6061:6072  ticketPrice */\n      dup1\n      sload\n        /* \"Anntdraw.sol\":6044:6051  tickets */\n      0x0b\n        /* \"Anntdraw.sol\":6044:6058  tickets.length */\n      sload\n        /* \"Anntdraw.sol\":6044:6072  tickets.length * ticketPrice */\n      tag_216\n      swap2\n        /* \"Anntdraw.sol\":6061:6072  ticketPrice */\n      swap1\n        /* \"Anntdraw.sol\":6044:6072  tickets.length * ticketPrice */\n      tag_164\n      jump\t// in\n        /* \"Anntdraw.sol\":4550:4757  function restartDraw() public isOperator {... */\n    tag_132:\n        /* \"Anntdraw.sol\":1183:1198  lotteryOperator */\n      and(sub(shl(0xa0, 0x01), 0x01), sload(0x06))\n        /* \"Anntdraw.sol\":1169:1179  msg.sender */\n      caller\n        /* \"Anntdraw.sol\":1169:1198  msg.sender == lotteryOperator */\n      eq\n        /* \"Anntdraw.sol\":1146:1261  require(... */\n      tag_247\n      jumpi\n      mload(0x40)\n      shl(0xe5, 0x461bcd)\n      dup2\n      mstore\n        /* \"#utility.yul\":2327:2329   */\n      0x20\n        /* \"Anntdraw.sol\":1146:1261  require(... */\n      0x04\n      dup3\n      add\n        /* \"#utility.yul\":2309:2330   */\n      mstore\n        /* \"#utility.yul\":2366:2368   */\n      0x22\n        /* \"#utility.yul\":2346:2364   */\n      0x24\n      dup3\n      add\n        /* \"#utility.yul\":2339:2369   */\n      mstore\n        /* \"#utility.yul\":2405:2439   */\n      0x43616c6c6572206973206e6f7420746865206c6f7474657279206f7065726174\n        /* \"#utility.yul\":2385:2403   */\n      0x44\n      dup3\n      add\n        /* \"#utility.yul\":2378:2440   */\n      mstore\n      shl(0xf1, 0x37b9)\n        /* \"#utility.yul\":2456:2474   */\n      0x64\n      dup3\n      add\n        /* \"#utility.yul\":2449:2481   */\n      mstore\n        /* \"#utility.yul\":2498:2517   */\n      0x84\n      add\n        /* \"Anntdraw.sol\":1146:1261  require(... */\n      tag_140\n        /* \"#utility.yul\":2125:2523   */\n      jump\n        /* \"Anntdraw.sol\":1146:1261  require(... */\n    tag_247:\n        /* \"Anntdraw.sol\":4610:4617  tickets */\n      0x0b\n        /* \"Anntdraw.sol\":4610:4624  tickets.length */\n      sload\n        /* \"Anntdraw.sol\":4610:4629  tickets.length == 0 */\n      iszero\n        /* \"Anntdraw.sol\":4602:4672  require(tickets.length == 0, \"Cannot Restart Draw as Draw is in play\") */\n      tag_250\n      jumpi\n      mload(0x40)\n      shl(0xe5, 0x461bcd)\n      dup2\n      mstore\n        /* \"#utility.yul\":7279:7281   */\n      0x20\n        /* \"Anntdraw.sol\":4602:4672  require(tickets.length == 0, \"Cannot Restart Draw as Draw is in play\") */\n      0x04\n      dup3\n      add\n        /* \"#utility.yul\":7261:7282   */\n      mstore\n        /* \"#utility.yul\":7318:7320   */\n      0x26\n        /* \"#utility.yul\":7298:7316   */\n      0x24\n      dup3\n      add\n        /* \"#utility.yul\":7291:7321   */\n      mstore\n        /* \"#utility.yul\":7357:7391   */\n      0x43616e6e6f742052657374617274204472617720617320447261772069732069\n        /* \"#utility.yul\":7337:7355   */\n      0x44\n      dup3\n      add\n        /* \"#utility.yul\":7330:7392   */\n      mstore\n        /* \"#utility.yul\":7428:7436   */\n      0x6e20706c61790000000000000000000000000000000000000000000000000000\n        /* \"#utility.yul\":7408:7426   */\n      0x64\n      dup3\n      add\n        /* \"#utility.yul\":7401:7437   */\n      mstore\n        /* \"#utility.yul\":7454:7473   */\n      0x84\n      add\n        /* \"Anntdraw.sol\":4602:4672  require(tickets.length == 0, \"Cannot Restart Draw as Draw is in play\") */\n      tag_140\n        /* \"#utility.yul\":7077:7479   */\n      jump\n        /* \"Anntdraw.sol\":4602:4672  require(tickets.length == 0, \"Cannot Restart Draw as Draw is in play\") */\n    tag_250:\n        /* \"Anntdraw.sol\":4685:4699  delete tickets */\n      tag_253\n        /* \"Anntdraw.sol\":4692:4699  tickets */\n      0x0b\n      0x00\n        /* \"Anntdraw.sol\":4685:4699  delete tickets */\n      tag_170\n      jump\t// in\n    tag_253:\n        /* \"Anntdraw.sol\":4741:4749  duration */\n      sload(0x03)\n        /* \"Anntdraw.sol\":4723:4749  block.timestamp + duration */\n      tag_254\n      swap1\n        /* \"Anntdraw.sol\":4723:4738  block.timestamp */\n      timestamp\n        /* \"Anntdraw.sol\":4723:4749  block.timestamp + duration */\n      tag_166\n      jump\t// in\n    tag_254:\n        /* \"Anntdraw.sol\":4710:4720  expiration */\n      0x05\n        /* \"Anntdraw.sol\":4710:4749  expiration = block.timestamp + duration */\n      sstore\n        /* \"Anntdraw.sol\":4550:4757  function restartDraw() public isOperator {... */\n      jump\t// out\n        /* \"@openzeppelin/contracts/utils/Strings.sol\":447:1143   */\n    tag_191:\n        /* \"@openzeppelin/contracts/utils/Strings.sol\":503:516   */\n      0x60\n        /* \"@openzeppelin/contracts/utils/Strings.sol\":552:566   */\n      0x00\n        /* \"@openzeppelin/contracts/utils/Strings.sol\":569:586   */\n      tag_256\n        /* \"@openzeppelin/contracts/utils/Strings.sol\":580:585   */\n      dup4\n        /* \"@openzeppelin/contracts/utils/Strings.sol\":569:579   */\n      tag_257\n        /* \"@openzeppelin/contracts/utils/Strings.sol\":569:586   */\n      jump\t// in\n    tag_256:\n        /* \"@openzeppelin/contracts/utils/Strings.sol\":589:590   */\n      0x01\n        /* \"@openzeppelin/contracts/utils/Strings.sol\":569:590   */\n      add\n        /* \"@openzeppelin/contracts/utils/Strings.sol\":552:590   */\n      swap1\n      pop\n        /* \"@openzeppelin/contracts/utils/Strings.sol\":604:624   */\n      0x00\n        /* \"@openzeppelin/contracts/utils/Strings.sol\":638:644   */\n      dup2\n        /* \"@openzeppelin/contracts/utils/Strings.sol\":627:645   */\n      0xffffffffffffffff\n      dup2\n      gt\n      iszero\n      tag_259\n      jumpi\n      tag_259\n      tag_260\n      jump\t// in\n    tag_259:\n      mload(0x40)\n      swap1\n      dup1\n      dup3\n      mstore\n      dup1\n      0x1f\n      add\n      not(0x1f)\n      and\n      0x20\n      add\n      dup3\n      add\n      0x40\n      mstore\n      dup1\n      iszero\n      tag_261\n      jumpi\n      0x20\n      dup3\n      add\n      dup2\n      dup1\n      calldatasize\n      dup4\n      calldatacopy\n      add\n      swap1\n      pop\n    tag_261:\n      pop\n        /* \"@openzeppelin/contracts/utils/Strings.sol\":604:645   */\n      swap1\n      pop\n        /* \"@openzeppelin/contracts/utils/Strings.sol\":765:793   */\n      dup2\n      dup2\n      add\n        /* \"@openzeppelin/contracts/utils/Strings.sol\":781:783   */\n      0x20\n        /* \"@openzeppelin/contracts/utils/Strings.sol\":765:793   */\n      add\n        /* \"@openzeppelin/contracts/utils/Strings.sol\":820:1100   */\n    tag_262:\n      not(0x00)\n        /* \"@openzeppelin/contracts/utils/Strings.sol\":851:856   */\n      add\n        /* \"@openzeppelin/contracts/utils/Strings.sol\":990:998   */\n      0x3031323334353637383961626364656600000000000000000000000000000000\n        /* \"@openzeppelin/contracts/utils/Strings.sol\":985:987   */\n      0x0a\n        /* \"@openzeppelin/contracts/utils/Strings.sol\":974:988   */\n      dup7\n      mod\n        /* \"@openzeppelin/contracts/utils/Strings.sol\":969:999   */\n      byte\n        /* \"@openzeppelin/contracts/utils/Strings.sol\":851:856   */\n      dup2\n        /* \"@openzeppelin/contracts/utils/Strings.sol\":956:1000   */\n      mstore8\n        /* \"@openzeppelin/contracts/utils/Strings.sol\":1044:1046   */\n      0x0a\n        /* \"@openzeppelin/contracts/utils/Strings.sol\":1035:1046   */\n      dup6\n      div\n      swap5\n      pop\n        /* \"@openzeppelin/contracts/utils/Strings.sol\":1064:1085   */\n      dup5\n        /* \"@openzeppelin/contracts/utils/Strings.sol\":820:1100   */\n      tag_262\n        /* \"@openzeppelin/contracts/utils/Strings.sol\":1064:1085   */\n      jumpi\n      pop\n        /* \"@openzeppelin/contracts/utils/Strings.sol\":1120:1126   */\n      swap4\n        /* \"@openzeppelin/contracts/utils/Strings.sol\":447:1143   */\n      swap3\n      pop\n      pop\n      pop\n      jump\t// out\n        /* \"Anntdraw.sol\":2473:2774  function getNumTicketsPerAddress(... */\n    tag_204:\n        /* \"Anntdraw.sol\":2559:2566  uint256 */\n      0x00\n      dup1\n      dup1\n        /* \"Anntdraw.sol\":2607:2744  for (uint256 i = 0; i < tickets.length; i++) {... */\n    tag_269:\n        /* \"Anntdraw.sol\":2631:2638  tickets */\n      0x0b\n        /* \"Anntdraw.sol\":2631:2645  tickets.length */\n      sload\n        /* \"Anntdraw.sol\":2627:2645  i < tickets.length */\n      dup2\n      lt\n        /* \"Anntdraw.sol\":2607:2744  for (uint256 i = 0; i < tickets.length; i++) {... */\n      iszero\n      tag_270\n      jumpi\n        /* \"Anntdraw.sol\":2685:2689  addr */\n      dup4\n      sub(shl(0xa0, 0x01), 0x01)\n        /* \"Anntdraw.sol\":2671:2689  tickets[i] == addr */\n      and\n        /* \"Anntdraw.sol\":2671:2678  tickets */\n      0x0b\n        /* \"Anntdraw.sol\":2679:2680  i */\n      dup3\n        /* \"Anntdraw.sol\":2671:2681  tickets[i] */\n      dup2\n      sload\n      dup2\n      lt\n      tag_273\n      jumpi\n      tag_273\n      tag_160\n      jump\t// in\n    tag_273:\n      0x00\n      swap2\n      dup3\n      mstore\n      0x20\n      swap1\n      swap2\n      keccak256\n      add\n      sload\n      sub(shl(0xa0, 0x01), 0x01)\n      and\n        /* \"Anntdraw.sol\":2671:2689  tickets[i] == addr */\n      sub\n        /* \"Anntdraw.sol\":2667:2733  if (tickets[i] == addr) {... */\n      tag_275\n      jumpi\n        /* \"Anntdraw.sol\":2710:2717  count++ */\n      dup2\n      tag_276\n      dup2\n      tag_214\n      jump\t// in\n    tag_276:\n      swap3\n      pop\n      pop\n        /* \"Anntdraw.sol\":2667:2733  if (tickets[i] == addr) {... */\n    tag_275:\n        /* \"Anntdraw.sol\":2647:2650  i++ */\n      dup1\n      tag_277\n      dup2\n      tag_214\n      jump\t// in\n    tag_277:\n      swap2\n      pop\n      pop\n        /* \"Anntdraw.sol\":2607:2744  for (uint256 i = 0; i < tickets.length; i++) {... */\n      jump(tag_269)\n    tag_270:\n      pop\n        /* \"Anntdraw.sol\":2761:2766  count */\n      swap3\n        /* \"Anntdraw.sol\":2473:2774  function getNumTicketsPerAddress(... */\n      swap2\n      pop\n      pop\n      jump\t// out\n        /* \"@openzeppelin/contracts/utils/math/Math.sol\":10139:11055   */\n    tag_257:\n        /* \"@openzeppelin/contracts/utils/math/Math.sol\":10192:10199   */\n      0x00\n      dup1\n        /* \"@openzeppelin/contracts/utils/math/Math.sol\":10276:10284   */\n      0x184f03e93ff9f4daa797ed6e38ed64bf6a1f010000000000000000\n        /* \"@openzeppelin/contracts/utils/math/Math.sol\":10267:10284   */\n      dup4\n      lt\n        /* \"@openzeppelin/contracts/utils/math/Math.sol\":10263:10366   */\n      tag_279\n      jumpi\n        /* \"@openzeppelin/contracts/utils/math/Math.sol\":10313:10321   */\n      0x184f03e93ff9f4daa797ed6e38ed64bf6a1f010000000000000000\n        /* \"@openzeppelin/contracts/utils/math/Math.sol\":10304:10321   */\n      dup4\n      div\n      swap3\n      pop\n        /* \"@openzeppelin/contracts/utils/math/Math.sol\":10349:10351   */\n      0x40\n        /* \"@openzeppelin/contracts/utils/math/Math.sol\":10339:10351   */\n      add\n        /* \"@openzeppelin/contracts/utils/math/Math.sol\":10263:10366   */\n    tag_279:\n        /* \"@openzeppelin/contracts/utils/math/Math.sol\":10392:10400   */\n      0x04ee2d6d415b85acef8100000000\n        /* \"@openzeppelin/contracts/utils/math/Math.sol\":10383:10388   */\n      dup4\n        /* \"@openzeppelin/contracts/utils/math/Math.sol\":10383:10400   */\n      lt\n        /* \"@openzeppelin/contracts/utils/math/Math.sol\":10379:10482   */\n      tag_282\n      jumpi\n        /* \"@openzeppelin/contracts/utils/math/Math.sol\":10429:10437   */\n      0x04ee2d6d415b85acef8100000000\n        /* \"@openzeppelin/contracts/utils/math/Math.sol\":10420:10437   */\n      dup4\n      div\n      swap3\n      pop\n        /* \"@openzeppelin/contracts/utils/math/Math.sol\":10465:10467   */\n      0x20\n        /* \"@openzeppelin/contracts/utils/math/Math.sol\":10455:10467   */\n      add\n        /* \"@openzeppelin/contracts/utils/math/Math.sol\":10379:10482   */\n    tag_282:\n        /* \"@openzeppelin/contracts/utils/math/Math.sol\":10508:10516   */\n      0x2386f26fc10000\n        /* \"@openzeppelin/contracts/utils/math/Math.sol\":10499:10504   */\n      dup4\n        /* \"@openzeppelin/contracts/utils/math/Math.sol\":10499:10516   */\n      lt\n        /* \"@openzeppelin/contracts/utils/math/Math.sol\":10495:10598   */\n      tag_285\n      jumpi\n        /* \"@openzeppelin/contracts/utils/math/Math.sol\":10545:10553   */\n      0x2386f26fc10000\n        /* \"@openzeppelin/contracts/utils/math/Math.sol\":10536:10553   */\n      dup4\n      div\n      swap3\n      pop\n        /* \"@openzeppelin/contracts/utils/math/Math.sol\":10581:10583   */\n      0x10\n        /* \"@openzeppelin/contracts/utils/math/Math.sol\":10571:10583   */\n      add\n        /* \"@openzeppelin/contracts/utils/math/Math.sol\":10495:10598   */\n    tag_285:\n        /* \"@openzeppelin/contracts/utils/math/Math.sol\":10624:10631   */\n      0x05f5e100\n        /* \"@openzeppelin/contracts/utils/math/Math.sol\":10615:10620   */\n      dup4\n        /* \"@openzeppelin/contracts/utils/math/Math.sol\":10615:10631   */\n      lt\n        /* \"@openzeppelin/contracts/utils/math/Math.sol\":10611:10711   */\n      tag_288\n      jumpi\n        /* \"@openzeppelin/contracts/utils/math/Math.sol\":10660:10667   */\n      0x05f5e100\n        /* \"@openzeppelin/contracts/utils/math/Math.sol\":10651:10667   */\n      dup4\n      div\n      swap3\n      pop\n        /* \"@openzeppelin/contracts/utils/math/Math.sol\":10695:10696   */\n      0x08\n        /* \"@openzeppelin/contracts/utils/math/Math.sol\":10685:10696   */\n      add\n        /* \"@openzeppelin/contracts/utils/math/Math.sol\":10611:10711   */\n    tag_288:\n        /* \"@openzeppelin/contracts/utils/math/Math.sol\":10737:10744   */\n      0x2710\n        /* \"@openzeppelin/contracts/utils/math/Math.sol\":10728:10733   */\n      dup4\n        /* \"@openzeppelin/contracts/utils/math/Math.sol\":10728:10744   */\n      lt\n        /* \"@openzeppelin/contracts/utils/math/Math.sol\":10724:10824   */\n      tag_291\n      jumpi\n        /* \"@openzeppelin/contracts/utils/math/Math.sol\":10773:10780   */\n      0x2710\n        /* \"@openzeppelin/contracts/utils/math/Math.sol\":10764:10780   */\n      dup4\n      div\n      swap3\n      pop\n        /* \"@openzeppelin/contracts/utils/math/Math.sol\":10808:10809   */\n      0x04\n        /* \"@openzeppelin/contracts/utils/math/Math.sol\":10798:10809   */\n      add\n        /* \"@openzeppelin/contracts/utils/math/Math.sol\":10724:10824   */\n    tag_291:\n        /* \"@openzeppelin/contracts/utils/math/Math.sol\":10850:10857   */\n      0x64\n        /* \"@openzeppelin/contracts/utils/math/Math.sol\":10841:10846   */\n      dup4\n        /* \"@openzeppelin/contracts/utils/math/Math.sol\":10841:10857   */\n      lt\n        /* \"@openzeppelin/contracts/utils/math/Math.sol\":10837:10937   */\n      tag_294\n      jumpi\n        /* \"@openzeppelin/contracts/utils/math/Math.sol\":10886:10893   */\n      0x64\n        /* \"@openzeppelin/contracts/utils/math/Math.sol\":10877:10893   */\n      dup4\n      div\n      swap3\n      pop\n        /* \"@openzeppelin/contracts/utils/math/Math.sol\":10921:10922   */\n      0x02\n        /* \"@openzeppelin/contracts/utils/math/Math.sol\":10911:10922   */\n      add\n        /* \"@openzeppelin/contracts/utils/math/Math.sol\":10837:10937   */\n    tag_294:\n        /* \"@openzeppelin/contracts/utils/math/Math.sol\":10963:10970   */\n      0x0a\n        /* \"@openzeppelin/contracts/utils/math/Math.sol\":10954:10959   */\n      dup4\n        /* \"@openzeppelin/contracts/utils/math/Math.sol\":10954:10970   */\n      lt\n        /* \"@openzeppelin/contracts/utils/math/Math.sol\":10950:11016   */\n      tag_297\n      jumpi\n        /* \"@openzeppelin/contracts/utils/math/Math.sol\":11000:11001   */\n      0x01\n        /* \"@openzeppelin/contracts/utils/math/Math.sol\":10990:11001   */\n      add\n        /* \"@openzeppelin/contracts/utils/math/Math.sol\":10950:11016   */\n    tag_297:\n        /* \"@openzeppelin/contracts/utils/math/Math.sol\":11042:11048   */\n      swap3\n        /* \"@openzeppelin/contracts/utils/math/Math.sol\":10139:11055   */\n      swap2\n      pop\n      pop\n      jump\t// out\n    tag_170:\n      pop\n      dup1\n      sload\n      0x00\n      dup3\n      sstore\n      swap1\n      0x00\n      mstore\n      keccak256(0x00, 0x20)\n      swap1\n      dup2\n      add\n      swap1\n      tag_299\n      swap2\n      swap1\n      tag_300\n      jump\t// in\n    tag_299:\n      pop\n      jump\t// out\n    tag_300:\n    tag_301:\n      dup1\n      dup3\n      gt\n      iszero\n      tag_302\n      jumpi\n      0x00\n      dup2\n      sstore\n      0x01\n      add\n      jump(tag_301)\n    tag_302:\n      pop\n      swap1\n      jump\t// out\n        /* \"#utility.yul\":196:877   */\n    tag_65:\n        /* \"#utility.yul\":367:369   */\n      0x20\n        /* \"#utility.yul\":419:440   */\n      dup1\n      dup3\n      mstore\n        /* \"#utility.yul\":489:502   */\n      dup3\n      mload\n        /* \"#utility.yul\":392:410   */\n      dup3\n      dup3\n      add\n        /* \"#utility.yul\":511:533   */\n      dup2\n      swap1\n      mstore\n        /* \"#utility.yul\":338:342   */\n      0x00\n      swap2\n        /* \"#utility.yul\":367:369   */\n      swap1\n        /* \"#utility.yul\":590:605   */\n      dup5\n      dup3\n      add\n      swap1\n        /* \"#utility.yul\":564:566   */\n      0x40\n        /* \"#utility.yul\":549:567   */\n      dup6\n      add\n      swap1\n        /* \"#utility.yul\":338:342   */\n      dup5\n        /* \"#utility.yul\":633:851   */\n    tag_308:\n        /* \"#utility.yul\":647:653   */\n      dup2\n        /* \"#utility.yul\":644:645   */\n      dup2\n        /* \"#utility.yul\":641:654   */\n      lt\n        /* \"#utility.yul\":633:851   */\n      iszero\n      tag_310\n      jumpi\n        /* \"#utility.yul\":712:725   */\n      dup4\n      mload\n      sub(shl(0xa0, 0x01), 0x01)\n        /* \"#utility.yul\":708:770   */\n      and\n        /* \"#utility.yul\":696:771   */\n      dup4\n      mstore\n        /* \"#utility.yul\":826:841   */\n      swap3\n      dup5\n      add\n      swap3\n        /* \"#utility.yul\":791:803   */\n      swap2\n      dup5\n      add\n      swap2\n        /* \"#utility.yul\":669:670   */\n      0x01\n        /* \"#utility.yul\":662:671   */\n      add\n        /* \"#utility.yul\":633:851   */\n      jump(tag_308)\n    tag_310:\n      pop\n        /* \"#utility.yul\":868:871   */\n      swap1\n      swap7\n        /* \"#utility.yul\":196:877   */\n      swap6\n      pop\n      pop\n      pop\n      pop\n      pop\n      pop\n      jump\t// out\n        /* \"#utility.yul\":882:1062   */\n    tag_69:\n        /* \"#utility.yul\":941:947   */\n      0x00\n        /* \"#utility.yul\":994:996   */\n      0x20\n        /* \"#utility.yul\":982:991   */\n      dup3\n        /* \"#utility.yul\":973:980   */\n      dup5\n        /* \"#utility.yul\":969:992   */\n      sub\n        /* \"#utility.yul\":965:997   */\n      slt\n        /* \"#utility.yul\":962:1014   */\n      iszero\n      tag_312\n      jumpi\n        /* \"#utility.yul\":1010:1011   */\n      0x00\n        /* \"#utility.yul\":1007:1008   */\n      dup1\n        /* \"#utility.yul\":1000:1012   */\n      revert\n        /* \"#utility.yul\":962:1014   */\n    tag_312:\n      pop\n        /* \"#utility.yul\":1033:1056   */\n      calldataload\n      swap2\n        /* \"#utility.yul\":882:1062   */\n      swap1\n      pop\n      jump\t// out\n        /* \"#utility.yul\":1490:1806   */\n    tag_102:\n        /* \"#utility.yul\":1567:1573   */\n      0x00\n        /* \"#utility.yul\":1575:1581   */\n      dup1\n        /* \"#utility.yul\":1583:1589   */\n      0x00\n        /* \"#utility.yul\":1636:1638   */\n      0x60\n        /* \"#utility.yul\":1624:1633   */\n      dup5\n        /* \"#utility.yul\":1615:1622   */\n      dup7\n        /* \"#utility.yul\":1611:1634   */\n      sub\n        /* \"#utility.yul\":1607:1639   */\n      slt\n        /* \"#utility.yul\":1604:1656   */\n      iszero\n      tag_316\n      jumpi\n        /* \"#utility.yul\":1652:1653   */\n      0x00\n        /* \"#utility.yul\":1649:1650   */\n      dup1\n        /* \"#utility.yul\":1642:1654   */\n      revert\n        /* \"#utility.yul\":1604:1656   */\n    tag_316:\n      pop\n      pop\n        /* \"#utility.yul\":1675:1698   */\n      dup2\n      calldataload\n      swap4\n        /* \"#utility.yul\":1745:1747   */\n      0x20\n        /* \"#utility.yul\":1730:1748   */\n      dup4\n      add\n        /* \"#utility.yul\":1717:1749   */\n      calldataload\n      swap4\n      pop\n        /* \"#utility.yul\":1796:1798   */\n      0x40\n        /* \"#utility.yul\":1781:1799   */\n      swap1\n      swap3\n      add\n        /* \"#utility.yul\":1768:1800   */\n      calldataload\n      swap2\n        /* \"#utility.yul\":1490:1806   */\n      swap1\n      pop\n      jump\t// out\n        /* \"#utility.yul\":1811:2120   */\n    tag_122:\n        /* \"#utility.yul\":1870:1876   */\n      0x00\n        /* \"#utility.yul\":1923:1925   */\n      0x20\n        /* \"#utility.yul\":1911:1920   */\n      dup3\n        /* \"#utility.yul\":1902:1909   */\n      dup5\n        /* \"#utility.yul\":1898:1921   */\n      sub\n        /* \"#utility.yul\":1894:1926   */\n      slt\n        /* \"#utility.yul\":1891:1943   */\n      iszero\n      tag_318\n      jumpi\n        /* \"#utility.yul\":1939:1940   */\n      0x00\n        /* \"#utility.yul\":1936:1937   */\n      dup1\n        /* \"#utility.yul\":1929:1941   */\n      revert\n        /* \"#utility.yul\":1891:1943   */\n    tag_318:\n        /* \"#utility.yul\":1978:1987   */\n      dup2\n        /* \"#utility.yul\":1965:1988   */\n      calldataload\n      sub(shl(0xa0, 0x01), 0x01)\n        /* \"#utility.yul\":2021:2026   */\n      dup2\n        /* \"#utility.yul\":2017:2071   */\n      and\n        /* \"#utility.yul\":2010:2015   */\n      dup2\n        /* \"#utility.yul\":2007:2072   */\n      eq\n        /* \"#utility.yul\":1997:2090   */\n      tag_319\n      jumpi\n        /* \"#utility.yul\":2086:2087   */\n      0x00\n        /* \"#utility.yul\":2083:2084   */\n      dup1\n        /* \"#utility.yul\":2076:2088   */\n      revert\n        /* \"#utility.yul\":1997:2090   */\n    tag_319:\n        /* \"#utility.yul\":2109:2114   */\n      swap4\n        /* \"#utility.yul\":1811:2120   */\n      swap3\n      pop\n      pop\n      pop\n      jump\t// out\n        /* \"#utility.yul\":2882:3009   */\n    tag_303:\n        /* \"#utility.yul\":2943:2953   */\n      0x4e487b71\n        /* \"#utility.yul\":2938:2941   */\n      0xe0\n        /* \"#utility.yul\":2934:2954   */\n      shl\n        /* \"#utility.yul\":2931:2932   */\n      0x00\n        /* \"#utility.yul\":2924:2955   */\n      mstore\n        /* \"#utility.yul\":2974:2978   */\n      0x11\n        /* \"#utility.yul\":2971:2972   */\n      0x04\n        /* \"#utility.yul\":2964:2979   */\n      mstore\n        /* \"#utility.yul\":2998:3002   */\n      0x24\n        /* \"#utility.yul\":2995:2996   */\n      0x00\n        /* \"#utility.yul\":2988:3003   */\n      revert\n        /* \"#utility.yul\":3014:3142   */\n    tag_153:\n        /* \"#utility.yul\":3081:3090   */\n      dup2\n      dup2\n      sub\n        /* \"#utility.yul\":3102:3113   */\n      dup2\n      dup2\n      gt\n        /* \"#utility.yul\":3099:3136   */\n      iszero\n      tag_297\n      jumpi\n        /* \"#utility.yul\":3116:3134   */\n      tag_297\n      tag_303\n      jump\t// in\n        /* \"#utility.yul\":3399:3526   */\n    tag_266:\n        /* \"#utility.yul\":3460:3470   */\n      0x4e487b71\n        /* \"#utility.yul\":3455:3458   */\n      0xe0\n        /* \"#utility.yul\":3451:3471   */\n      shl\n        /* \"#utility.yul\":3448:3449   */\n      0x00\n        /* \"#utility.yul\":3441:3472   */\n      mstore\n        /* \"#utility.yul\":3491:3495   */\n      0x12\n        /* \"#utility.yul\":3488:3489   */\n      0x04\n        /* \"#utility.yul\":3481:3496   */\n      mstore\n        /* \"#utility.yul\":3515:3519   */\n      0x24\n        /* \"#utility.yul\":3512:3513   */\n      0x00\n        /* \"#utility.yul\":3505:3520   */\n      revert\n        /* \"#utility.yul\":3531:3643   */\n    tag_157:\n        /* \"#utility.yul\":3563:3564   */\n      0x00\n        /* \"#utility.yul\":3589:3590   */\n      dup3\n        /* \"#utility.yul\":3579:3614   */\n      tag_330\n      jumpi\n        /* \"#utility.yul\":3594:3612   */\n      tag_330\n      tag_266\n      jump\t// in\n    tag_330:\n      pop\n        /* \"#utility.yul\":3628:3637   */\n      mod\n      swap1\n        /* \"#utility.yul\":3531:3643   */\n      jump\t// out\n        /* \"#utility.yul\":3648:3775   */\n    tag_160:\n        /* \"#utility.yul\":3709:3719   */\n      0x4e487b71\n        /* \"#utility.yul\":3704:3707   */\n      0xe0\n        /* \"#utility.yul\":3700:3720   */\n      shl\n        /* \"#utility.yul\":3697:3698   */\n      0x00\n        /* \"#utility.yul\":3690:3721   */\n      mstore\n        /* \"#utility.yul\":3740:3744   */\n      0x32\n        /* \"#utility.yul\":3737:3738   */\n      0x04\n        /* \"#utility.yul\":3730:3745   */\n      mstore\n        /* \"#utility.yul\":3764:3768   */\n      0x24\n        /* \"#utility.yul\":3761:3762   */\n      0x00\n        /* \"#utility.yul\":3754:3769   */\n      revert\n        /* \"#utility.yul\":3780:3948   */\n    tag_164:\n        /* \"#utility.yul\":3853:3862   */\n      dup1\n      dup3\n      mul\n        /* \"#utility.yul\":3884:3893   */\n      dup2\n      iszero\n        /* \"#utility.yul\":3901:3916   */\n      dup3\n      dup3\n      div\n        /* \"#utility.yul\":3895:3917   */\n      dup5\n      eq\n        /* \"#utility.yul\":3881:3918   */\n      or\n        /* \"#utility.yul\":3871:3942   */\n      tag_297\n      jumpi\n        /* \"#utility.yul\":3922:3940   */\n      tag_297\n      tag_303\n      jump\t// in\n        /* \"#utility.yul\":3953:4078   */\n    tag_166:\n        /* \"#utility.yul\":4018:4027   */\n      dup1\n      dup3\n      add\n        /* \"#utility.yul\":4039:4049   */\n      dup1\n      dup3\n      gt\n        /* \"#utility.yul\":4036:4072   */\n      iszero\n      tag_297\n      jumpi\n        /* \"#utility.yul\":4052:4070   */\n      tag_297\n      tag_303\n      jump\t// in\n        /* \"#utility.yul\":4434:4684   */\n    tag_304:\n        /* \"#utility.yul\":4519:4520   */\n      0x00\n        /* \"#utility.yul\":4529:4642   */\n    tag_340:\n        /* \"#utility.yul\":4543:4549   */\n      dup4\n        /* \"#utility.yul\":4540:4541   */\n      dup2\n        /* \"#utility.yul\":4537:4550   */\n      lt\n        /* \"#utility.yul\":4529:4642   */\n      iszero\n      tag_342\n      jumpi\n        /* \"#utility.yul\":4619:4630   */\n      dup2\n      dup2\n      add\n        /* \"#utility.yul\":4613:4631   */\n      mload\n        /* \"#utility.yul\":4600:4611   */\n      dup4\n      dup3\n      add\n        /* \"#utility.yul\":4593:4632   */\n      mstore\n        /* \"#utility.yul\":4565:4567   */\n      0x20\n        /* \"#utility.yul\":4558:4568   */\n      add\n        /* \"#utility.yul\":4529:4642   */\n      jump(tag_340)\n    tag_342:\n      pop\n      pop\n        /* \"#utility.yul\":4676:4677   */\n      0x00\n        /* \"#utility.yul\":4658:4674   */\n      swap2\n      add\n        /* \"#utility.yul\":4651:4678   */\n      mstore\n        /* \"#utility.yul\":4434:4684   */\n      jump\t// out\n        /* \"#utility.yul\":4689:5290   */\n    tag_193:\n        /* \"#utility.yul\":5031:5063   */\n      0x7468652076616c7565206d757374206265206d756c7469706c65206f66200000\n        /* \"#utility.yul\":5026:5029   */\n      dup2\n        /* \"#utility.yul\":5019:5064   */\n      mstore\n        /* \"#utility.yul\":5001:5004   */\n      0x00\n        /* \"#utility.yul\":5093:5099   */\n      dup3\n        /* \"#utility.yul\":5087:5100   */\n      mload\n        /* \"#utility.yul\":5109:5184   */\n      tag_344\n        /* \"#utility.yul\":5177:5183   */\n      dup2\n        /* \"#utility.yul\":5172:5174   */\n      0x1e\n        /* \"#utility.yul\":5167:5170   */\n      dup6\n        /* \"#utility.yul\":5163:5175   */\n      add\n        /* \"#utility.yul\":5156:5160   */\n      0x20\n        /* \"#utility.yul\":5148:5154   */\n      dup8\n        /* \"#utility.yul\":5144:5161   */\n      add\n        /* \"#utility.yul\":5109:5184   */\n      tag_304\n      jump\t// in\n    tag_344:\n        /* \"#utility.yul\":5248:5256   */\n      0x2045746865720000000000000000000000000000000000000000000000000000\n        /* \"#utility.yul\":5243:5245   */\n      0x1e\n        /* \"#utility.yul\":5203:5219   */\n      swap4\n      swap1\n      swap2\n      add\n        /* \"#utility.yul\":5235:5246   */\n      swap3\n      dup4\n      add\n        /* \"#utility.yul\":5228:5257   */\n      mstore\n      pop\n        /* \"#utility.yul\":5281:5283   */\n      0x24\n        /* \"#utility.yul\":5273:5284   */\n      add\n      swap2\n        /* \"#utility.yul\":4689:5290   */\n      swap1\n      pop\n      jump\t// out\n        /* \"#utility.yul\":5295:5691   */\n    tag_196:\n        /* \"#utility.yul\":5444:5446   */\n      0x20\n        /* \"#utility.yul\":5433:5442   */\n      dup2\n        /* \"#utility.yul\":5426:5447   */\n      mstore\n        /* \"#utility.yul\":5407:5411   */\n      0x00\n        /* \"#utility.yul\":5476:5482   */\n      dup3\n        /* \"#utility.yul\":5470:5483   */\n      mload\n        /* \"#utility.yul\":5519:5525   */\n      dup1\n        /* \"#utility.yul\":5514:5516   */\n      0x20\n        /* \"#utility.yul\":5503:5512   */\n      dup5\n        /* \"#utility.yul\":5499:5517   */\n      add\n        /* \"#utility.yul\":5492:5526   */\n      mstore\n        /* \"#utility.yul\":5535:5614   */\n      tag_346\n        /* \"#utility.yul\":5607:5613   */\n      dup2\n        /* \"#utility.yul\":5602:5604   */\n      0x40\n        /* \"#utility.yul\":5591:5600   */\n      dup6\n        /* \"#utility.yul\":5587:5605   */\n      add\n        /* \"#utility.yul\":5582:5584   */\n      0x20\n        /* \"#utility.yul\":5574:5580   */\n      dup8\n        /* \"#utility.yul\":5570:5585   */\n      add\n        /* \"#utility.yul\":5535:5614   */\n      tag_304\n      jump\t// in\n    tag_346:\n        /* \"#utility.yul\":5675:5677   */\n      0x1f\n        /* \"#utility.yul\":5654:5669   */\n      add\n      not(0x1f)\n        /* \"#utility.yul\":5650:5679   */\n      and\n        /* \"#utility.yul\":5635:5680   */\n      swap2\n      swap1\n      swap2\n      add\n        /* \"#utility.yul\":5682:5684   */\n      0x40\n        /* \"#utility.yul\":5631:5685   */\n      add\n      swap3\n        /* \"#utility.yul\":5295:5691   */\n      swap2\n      pop\n      pop\n      jump\t// out\n        /* \"#utility.yul\":5696:5816   */\n    tag_198:\n        /* \"#utility.yul\":5736:5737   */\n      0x00\n        /* \"#utility.yul\":5762:5763   */\n      dup3\n        /* \"#utility.yul\":5752:5787   */\n      tag_349\n      jumpi\n        /* \"#utility.yul\":5767:5785   */\n      tag_349\n      tag_266\n      jump\t// in\n    tag_349:\n      pop\n        /* \"#utility.yul\":5801:5810   */\n      div\n      swap1\n        /* \"#utility.yul\":5696:5816   */\n      jump\t// out\n        /* \"#utility.yul\":6581:6716   */\n    tag_214:\n        /* \"#utility.yul\":6620:6623   */\n      0x00\n        /* \"#utility.yul\":6641:6658   */\n      0x01\n      dup3\n      add\n        /* \"#utility.yul\":6638:6681   */\n      tag_354\n      jumpi\n        /* \"#utility.yul\":6661:6679   */\n      tag_354\n      tag_303\n      jump\t// in\n    tag_354:\n      pop\n        /* \"#utility.yul\":6708:6709   */\n      0x01\n        /* \"#utility.yul\":6697:6710   */\n      add\n      swap1\n        /* \"#utility.yul\":6581:6716   */\n      jump\t// out\n        /* \"#utility.yul\":7484:7611   */\n    tag_260:\n        /* \"#utility.yul\":7545:7555   */\n      0x4e487b71\n        /* \"#utility.yul\":7540:7543   */\n      0xe0\n        /* \"#utility.yul\":7536:7556   */\n      shl\n        /* \"#utility.yul\":7533:7534   */\n      0x00\n        /* \"#utility.yul\":7526:7557   */\n      mstore\n        /* \"#utility.yul\":7576:7580   */\n      0x41\n        /* \"#utility.yul\":7573:7574   */\n      0x04\n        /* \"#utility.yul\":7566:7581   */\n      mstore\n        /* \"#utility.yul\":7600:7604   */\n      0x24\n        /* \"#utility.yul\":7597:7598   */\n      0x00\n        /* \"#utility.yul\":7590:7605   */\n      revert\n\n    auxdata: 0xa26469706673582212208d8d8048196e6273ef970f01d2d8e8f3f53239b149f3194de0a8f29e65e3592164736f6c63430008110033\n}\n",
    "bytecode": {
      "linkReferences": {},
      "object": "6080604052662386f26fc10000600055609660015566038d7ea4c6800060025562049d406003556005600455600060075534801561003c57600080fd5b50600680546001600160a01b0319163317905560035461005c9042610064565b60055561008b565b8082018082111561008557634e487b7160e01b600052601160045260246000fd5b92915050565b6111ef8061009a6000396000f3fe6080604052600436106101965760003560e01c806391d8b14e116100e1578063a88f46721161008a578063dd64e53411610064578063dd64e534146103db578063ea3a149914610411578063f26132691461043e578063fe1881841461045357600080fd5b8063a88f46721461039b578063ba946d79146103b0578063c6944fa0146103c657600080fd5b80639802cf2f116100bb5780639802cf2f146103455780639b478ab0146103655780639b8947031461038557600080fd5b806391d8b14e146102f957806393a563b51461030157806396c85ef31461031657600080fd5b80634788af7c116101435780635a58acdd1161011d5780635a58acdd146102ae5780636032a4f9146102ce57806371827b7b146102e457600080fd5b80634788af7c1461023f5780634ed026221461025457806350b447121461027657600080fd5b806335580df21161017457806335580df2146101fc578063463a94a5146102135780634665096d1461022957600080fd5b806306f7f3bf1461019b5780630789c607146101c45780631209b1f6146101e6575b600080fd5b3480156101a757600080fd5b506101b160095481565b6040519081526020015b60405180910390f35b3480156101d057600080fd5b50336000908152600a60205260409020546101b1565b3480156101f257600080fd5b506101b160005481565b34801561020857600080fd5b50610211610473565b005b34801561021f57600080fd5b506101b160045481565b34801561023557600080fd5b506101b160055481565b34801561024b57600080fd5b5061021161051a565b34801561026057600080fd5b50610269610721565b6040516101bb9190610f5e565b34801561028257600080fd5b50610296610291366004610fab565b610783565b6040516001600160a01b0390911681526020016101bb565b3480156102ba57600080fd5b50600654610296906001600160a01b031681565b3480156102da57600080fd5b506101b160025481565b3480156102f057600080fd5b506102116107ad565b61021161084c565b34801561030d57600080fd5b506101b1610a13565b34801561032257600080fd5b50336000908152600a6020526040902054151560405190151581526020016101bb565b34801561035157600080fd5b50610211610360366004610fab565b610a2a565b34801561037157600080fd5b50610211610380366004610fc4565b610a94565b34801561039157600080fd5b506101b160015481565b3480156103a757600080fd5b50610211610b07565b3480156103bc57600080fd5b506101b160075481565b3480156103d257600080fd5b506101b1610c2a565b3480156103e757600080fd5b506101b16103f6366004610ff0565b6001600160a01b03166000908152600a602052604090205490565b34801561041d57600080fd5b506101b161042c366004610ff0565b600a6020526000908152604090205481565b34801561044a57600080fd5b50610211610c3b565b34801561045f57600080fd5b50600854610296906001600160a01b031681565b6006546001600160a01b031633146104dd5760405162461bcd60e51b815260206004820152602260248201527f43616c6c6572206973206e6f7420746865206c6f7474657279206f706572617460448201526137b960f11b60648201526084015b60405180910390fd5b600780546000918290556040513392839183156108fc0291849190818181858888f19350505050158015610515573d6000803e3d6000fd5b505050565b6006546001600160a01b0316331461057f5760405162461bcd60e51b815260206004820152602260248201527f43616c6c6572206973206e6f7420746865206c6f7474657279206f706572617460448201526137b960f11b60648201526084016104d4565b600b546105ce5760405162461bcd60e51b815260206004820152601960248201527f4e6f207469636b6574732077657265207075726368617365640000000000000060448201526064016104d4565b600b546000906105de9043611036565b604080514260208201529140908201819052915060009060600160408051601f198184030181529190528051602090910120600b54909150600090610623908361105f565b90506000600b828154811061063a5761063a611073565b60009182526020822001546008805473ffffffffffffffffffffffffffffffffffffffff19166001600160a01b03909216918217905560025491549092506106829190611036565b600b5461068f9190611089565b6001600160a01b0382166000908152600a6020526040812080549091906106b79084906110a0565b90915550506001600160a01b0381166000908152600a6020526040902054600955600254600b546106e89190611089565b600760008282546106f991906110a0565b9091555061070b9050600b6000610f24565b60035461071890426110a0565b60055550505050565b6060600b80548060200260200160405190810160405280929190818152602001828054801561077957602002820191906000526020600020905b81546001600160a01b0316815260019091019060200180831161075b575b5050505050905090565b600b818154811061079357600080fd5b6000918252602090912001546001600160a01b0316905081565b336000908152600a60205260409020546108095760405162461bcd60e51b815260206004820152601660248201527f43616c6c6572206973206e6f7420612077696e6e65720000000000000000000060448201526064016104d4565b336000818152600a602052604080822080549083905590519091839183156108fc0291849190818181858888f19350505050158015610515573d6000803e3d6000fd5b600b5415801561085e57506005544210155b156108745760035461087090426110a0565b6005555b600054610881903461105f565b60001461088f600054610d34565b60405160200161089f91906110d7565b604051602081830303815290604052906108cc5760405162461bcd60e51b81526004016104d49190611143565b50600080546108db9034611176565b90506108e5610a13565b8111156109345760405162461bcd60e51b815260206004820152601d60248201527f4e6f7420656e6f756768207469636b65747320617661696c61626c652e00000060448201526064016104d4565b6004548161094133610dd4565b61094b91906110a0565b11156109a35760405162461bcd60e51b815260206004820152602160248201527f4d6178207469636b6574732070657220616464726573732065786365656465646044820152601760f91b60648201526084016104d4565b60005b81811015610a0f57600b80546001810182556000919091527f0175b7a638427703f0dbe7bb9bbf987a2551717b34e79f33b5b1008d1fa01db901805473ffffffffffffffffffffffffffffffffffffffff19163317905580610a078161118a565b9150506109a6565b5050565b600b54600154600091610a2591611036565b905090565b6006546001600160a01b03163314610a8f5760405162461bcd60e51b815260206004820152602260248201527f43616c6c6572206973206e6f7420746865206c6f7474657279206f706572617460448201526137b960f11b60648201526084016104d4565b600455565b6006546001600160a01b03163314610af95760405162461bcd60e51b815260206004820152602260248201527f43616c6c6572206973206e6f7420746865206c6f7474657279206f706572617460448201526137b960f11b60648201526084016104d4565b600092909255600155600255565b600554421015610b595760405162461bcd60e51b815260206004820152601b60248201527f746865206c6f7474657279206e6f74206578706972656420796574000000000060448201526064016104d4565b60005b600b54811015610c1b576000600b8281548110610b7b57610b7b611073565b6000918252602082200154600b80546001600160a01b0390921693509084908110610ba857610ba8611073565b60009182526020822001805473ffffffffffffffffffffffffffffffffffffffff19166001600160a01b039384161790558054604051928416926108fc82150292818181858888f19350505050158015610c06573d6000803e3d6000fd5b50508080610c139061118a565b915050610b5c565b50610c28600b6000610f24565b565b60008054600b54610a259190611089565b6006546001600160a01b03163314610ca05760405162461bcd60e51b815260206004820152602260248201527f43616c6c6572206973206e6f7420746865206c6f7474657279206f706572617460448201526137b960f11b60648201526084016104d4565b600b5415610d165760405162461bcd60e51b815260206004820152602660248201527f43616e6e6f74205265737461727420447261772061732044726177206973206960448201527f6e20706c6179000000000000000000000000000000000000000000000000000060648201526084016104d4565b610d22600b6000610f24565b600354610d2f90426110a0565b600555565b60606000610d4183610e41565b600101905060008167ffffffffffffffff811115610d6157610d616111a3565b6040519080825280601f01601f191660200182016040528015610d8b576020820181803683370190505b5090508181016020015b600019017f3031323334353637383961626364656600000000000000000000000000000000600a86061a8153600a8504945084610d9557509392505050565b600080805b600b54811015610e3a57836001600160a01b0316600b8281548110610e0057610e00611073565b6000918252602090912001546001600160a01b031603610e285781610e248161118a565b9250505b80610e328161118a565b915050610dd9565b5092915050565b6000807a184f03e93ff9f4daa797ed6e38ed64bf6a1f0100000000000000008310610e8a577a184f03e93ff9f4daa797ed6e38ed64bf6a1f010000000000000000830492506040015b6d04ee2d6d415b85acef81000000008310610eb6576d04ee2d6d415b85acef8100000000830492506020015b662386f26fc100008310610ed457662386f26fc10000830492506010015b6305f5e1008310610eec576305f5e100830492506008015b6127108310610f0057612710830492506004015b60648310610f12576064830492506002015b600a8310610f1e576001015b92915050565b5080546000825590600052602060002090810190610f429190610f45565b50565b5b80821115610f5a5760008155600101610f46565b5090565b6020808252825182820181905260009190848201906040850190845b81811015610f9f5783516001600160a01b031683529284019291840191600101610f7a565b50909695505050505050565b600060208284031215610fbd57600080fd5b5035919050565b600080600060608486031215610fd957600080fd5b505081359360208301359350604090920135919050565b60006020828403121561100257600080fd5b81356001600160a01b038116811461101957600080fd5b9392505050565b634e487b7160e01b600052601160045260246000fd5b81810381811115610f1e57610f1e611020565b634e487b7160e01b600052601260045260246000fd5b60008261106e5761106e611049565b500690565b634e487b7160e01b600052603260045260246000fd5b8082028115828204841417610f1e57610f1e611020565b80820180821115610f1e57610f1e611020565b60005b838110156110ce5781810151838201526020016110b6565b50506000910152565b7f7468652076616c7565206d757374206265206d756c7469706c65206f6620000081526000825161110f81601e8501602087016110b3565b7f2045746865720000000000000000000000000000000000000000000000000000601e939091019283015250602401919050565b60208152600082518060208401526111628160408501602087016110b3565b601f01601f19169190910160400192915050565b60008261118557611185611049565b500490565b60006001820161119c5761119c611020565b5060010190565b634e487b7160e01b600052604160045260246000fdfea26469706673582212208d8d8048196e6273ef970f01d2d8e8f3f53239b149f3194de0a8f29e65e3592164736f6c63430008110033",
      "opcodes": "PUSH1 0x80 PUSH1 0x40 MSTORE PUSH7 0x2386F26FC10000 PUSH1 0x0 SSTORE PUSH1 0x96 PUSH1 0x1 SSTORE PUSH7 0x38D7EA4C68000 PUSH1 0x2 SSTORE PUSH3 0x49D40 PUSH1 0x3 SSTORE PUSH1 0x5 PUSH1 0x4 SSTORE PUSH1 0x0 PUSH1 0x7 SSTORE CALLVALUE DUP1 ISZERO PUSH2 0x3C JUMPI PUSH1 0x0 DUP1 REVERT JUMPDEST POP PUSH1 0x6 DUP1 SLOAD PUSH1 0x1 PUSH1 0x1 PUSH1 0xA0 SHL SUB NOT AND CALLER OR SWAP1 SSTORE PUSH1 0x3 SLOAD PUSH2 0x5C SWAP1 TIMESTAMP PUSH2 0x64 JUMP JUMPDEST PUSH1 0x5 SSTORE PUSH2 0x8B JUMP JUMPDEST DUP1 DUP3 ADD DUP1 DUP3 GT ISZERO PUSH2 0x85 JUMPI PUSH4 0x4E487B71 PUSH1 0xE0 SHL PUSH1 0x0 MSTORE PUSH1 0x11 PUSH1 0x4 MSTORE PUSH1 0x24 PUSH1 0x0 REVERT JUMPDEST SWAP3 SWAP2 POP POP JUMP JUMPDEST PUSH2 0x11EF DUP1 PUSH2 0x9A PUSH1 0x0 CODECOPY PUSH1 0x0 RETURN INVALID PUSH1 0x80 PUSH1 0x40 MSTORE PUSH1 0x4 CALLDATASIZE LT PUSH2 0x196 JUMPI PUSH1 0x0 CALLDATALOAD PUSH1 0xE0 SHR DUP1 PUSH4 0x91D8B14E GT PUSH2 0xE1 JUMPI DUP1 PUSH4 0xA88F4672 GT PUSH2 0x8A JUMPI DUP1 PUSH4 0xDD64E534 GT PUSH2 0x64 JUMPI DUP1 PUSH4 0xDD64E534 EQ PUSH2 0x3DB JUMPI DUP1 PUSH4 0xEA3A1499 EQ PUSH2 0x411 JUMPI DUP1 PUSH4 0xF2613269 EQ PUSH2 0x43E JUMPI DUP1 PUSH4 0xFE188184 EQ PUSH2 0x453 JUMPI PUSH1 0x0 DUP1 REVERT JUMPDEST DUP1 PUSH4 0xA88F4672 EQ PUSH2 0x39B JUMPI DUP1 PUSH4 0xBA946D79 EQ PUSH2 0x3B0 JUMPI DUP1 PUSH4 0xC6944FA0 EQ PUSH2 0x3C6 JUMPI PUSH1 0x0 DUP1 REVERT JUMPDEST DUP1 PUSH4 0x9802CF2F GT PUSH2 0xBB JUMPI DUP1 PUSH4 0x9802CF2F EQ PUSH2 0x345 JUMPI DUP1 PUSH4 0x9B478AB0 EQ PUSH2 0x365 JUMPI DUP1 PUSH4 0x9B894703 EQ PUSH2 0x385 JUMPI PUSH1 0x0 DUP1 REVERT JUMPDEST DUP1 PUSH4 0x91D8B14E EQ PUSH2 0x2F9 JUMPI DUP1 PUSH4 0x93A563B5 EQ PUSH2 0x301 JUMPI DUP1 PUSH4 0x96C85EF3 EQ PUSH2 0x316 JUMPI PUSH1 0x0 DUP1 REVERT JUMPDEST DUP1 PUSH4 0x4788AF7C GT PUSH2 0x143 JUMPI DUP1 PUSH4 0x5A58ACDD GT PUSH2 0x11D JUMPI DUP1 PUSH4 0x5A58ACDD EQ PUSH2 0x2AE JUMPI DUP1 PUSH4 0x6032A4F9 EQ PUSH2 0x2CE JUMPI DUP1 PUSH4 0x71827B7B EQ PUSH2 0x2E4 JUMPI PUSH1 0x0 DUP1 REVERT JUMPDEST DUP1 PUSH4 0x4788AF7C EQ PUSH2 0x23F JUMPI DUP1 PUSH4 0x4ED02622 EQ PUSH2 0x254 JUMPI DUP1 PUSH4 0x50B44712 EQ PUSH2 0x276 JUMPI PUSH1 0x0 DUP1 REVERT JUMPDEST DUP1 PUSH4 0x35580DF2 GT PUSH2 0x174 JUMPI DUP1 PUSH4 0x35580DF2 EQ PUSH2 0x1FC JUMPI DUP1 PUSH4 0x463A94A5 EQ PUSH2 0x213 JUMPI DUP1 PUSH4 0x4665096D EQ PUSH2 0x229 JUMPI PUSH1 0x0 DUP1 REVERT JUMPDEST DUP1 PUSH4 0x6F7F3BF EQ PUSH2 0x19B JUMPI DUP1 PUSH4 0x789C607 EQ PUSH2 0x1C4 JUMPI DUP1 PUSH4 0x1209B1F6 EQ PUSH2 0x1E6 JUMPI JUMPDEST PUSH1 0x0 DUP1 REVERT JUMPDEST CALLVALUE DUP1 ISZERO PUSH2 0x1A7 JUMPI PUSH1 0x0 DUP1 REVERT JUMPDEST POP PUSH2 0x1B1 PUSH1 0x9 SLOAD DUP2 JUMP JUMPDEST PUSH1 0x40 MLOAD SWAP1 DUP2 MSTORE PUSH1 0x20 ADD JUMPDEST PUSH1 0x40 MLOAD DUP1 SWAP2 SUB SWAP1 RETURN JUMPDEST CALLVALUE DUP1 ISZERO PUSH2 0x1D0 JUMPI PUSH1 0x0 DUP1 REVERT JUMPDEST POP CALLER PUSH1 0x0 SWAP1 DUP2 MSTORE PUSH1 0xA PUSH1 0x20 MSTORE PUSH1 0x40 SWAP1 KECCAK256 SLOAD PUSH2 0x1B1 JUMP JUMPDEST CALLVALUE DUP1 ISZERO PUSH2 0x1F2 JUMPI PUSH1 0x0 DUP1 REVERT JUMPDEST POP PUSH2 0x1B1 PUSH1 0x0 SLOAD DUP2 JUMP JUMPDEST CALLVALUE DUP1 ISZERO PUSH2 0x208 JUMPI PUSH1 0x0 DUP1 REVERT JUMPDEST POP PUSH2 0x211 PUSH2 0x473 JUMP JUMPDEST STOP JUMPDEST CALLVALUE DUP1 ISZERO PUSH2 0x21F JUMPI PUSH1 0x0 DUP1 REVERT JUMPDEST POP PUSH2 0x1B1 PUSH1 0x4 SLOAD DUP2 JUMP JUMPDEST CALLVALUE DUP1 ISZERO PUSH2 0x235 JUMPI PUSH1 0x0 DUP1 REVERT JUMPDEST POP PUSH2 0x1B1 PUSH1 0x5 SLOAD DUP2 JUMP JUMPDEST CALLVALUE DUP1 ISZERO PUSH2 0x24B JUMPI PUSH1 0x0 DUP1 REVERT JUMPDEST POP PUSH2 0x211 PUSH2 0x51A JUMP JUMPDEST CALLVALUE DUP1 ISZERO PUSH2 0x260 JUMPI PUSH1 0x0 DUP1 REVERT JUMPDEST POP PUSH2 0x269 PUSH2 0x721 JUMP JUMPDEST PUSH1 0x40 MLOAD PUSH2 0x1BB SWAP2 SWAP1 PUSH2 0xF5E JUMP JUMPDEST CALLVALUE DUP1 ISZERO PUSH2 0x282 JUMPI PUSH1 0x0 DUP1 REVERT JUMPDEST POP PUSH2 0x296 PUSH2 0x291 CALLDATASIZE PUSH1 0x4 PUSH2 0xFAB JUMP JUMPDEST PUSH2 0x783 JUMP JUMPDEST PUSH1 0x40 MLOAD PUSH1 0x1 PUSH1 0x1 PUSH1 0xA0 SHL SUB SWAP1 SWAP2 AND DUP2 MSTORE PUSH1 0x20 ADD PUSH2 0x1BB JUMP JUMPDEST CALLVALUE DUP1 ISZERO PUSH2 0x2BA JUMPI PUSH1 0x0 DUP1 REVERT JUMPDEST POP PUSH1 0x6 SLOAD PUSH2 0x296 SWAP1 PUSH1 0x1 PUSH1 0x1 PUSH1 0xA0 SHL SUB AND DUP2 JUMP JUMPDEST CALLVALUE DUP1 ISZERO PUSH2 0x2DA JUMPI PUSH1 0x0 DUP1 REVERT JUMPDEST POP PUSH2 0x1B1 PUSH1 0x2 SLOAD DUP2 JUMP JUMPDEST CALLVALUE DUP1 ISZERO PUSH2 0x2F0 JUMPI PUSH1 0x0 DUP1 REVERT JUMPDEST POP PUSH2 0x211 PUSH2 0x7AD JUMP JUMPDEST PUSH2 0x211 PUSH2 0x84C JUMP JUMPDEST CALLVALUE DUP1 ISZERO PUSH2 0x30D JUMPI PUSH1 0x0 DUP1 REVERT JUMPDEST POP PUSH2 0x1B1 PUSH2 0xA13 JUMP JUMPDEST CALLVALUE DUP1 ISZERO PUSH2 0x322 JUMPI PUSH1 0x0 DUP1 REVERT JUMPDEST POP CALLER PUSH1 0x0 SWAP1 DUP2 MSTORE PUSH1 0xA PUSH1 0x20 MSTORE PUSH1 0x40 SWAP1 KECCAK256 SLOAD ISZERO ISZERO PUSH1 0x40 MLOAD SWAP1 ISZERO ISZERO DUP2 MSTORE PUSH1 0x20 ADD PUSH2 0x1BB JUMP JUMPDEST CALLVALUE DUP1 ISZERO PUSH2 0x351 JUMPI PUSH1 0x0 DUP1 REVERT JUMPDEST POP PUSH2 0x211 PUSH2 0x360 CALLDATASIZE PUSH1 0x4 PUSH2 0xFAB JUMP JUMPDEST PUSH2 0xA2A JUMP JUMPDEST CALLVALUE DUP1 ISZERO PUSH2 0x371 JUMPI PUSH1 0x0 DUP1 REVERT JUMPDEST POP PUSH2 0x211 PUSH2 0x380 CALLDATASIZE PUSH1 0x4 PUSH2 0xFC4 JUMP JUMPDEST PUSH2 0xA94 JUMP JUMPDEST CALLVALUE DUP1 ISZERO PUSH2 0x391 JUMPI PUSH1 0x0 DUP1 REVERT JUMPDEST POP PUSH2 0x1B1 PUSH1 0x1 SLOAD DUP2 JUMP JUMPDEST CALLVALUE DUP1 ISZERO PUSH2 0x3A7 JUMPI PUSH1 0x0 DUP1 REVERT JUMPDEST POP PUSH2 0x211 PUSH2 0xB07 JUMP JUMPDEST CALLVALUE DUP1 ISZERO PUSH2 0x3BC JUMPI PUSH1 0x0 DUP1 REVERT JUMPDEST POP PUSH2 0x1B1 PUSH1 0x7 SLOAD DUP2 JUMP JUMPDEST CALLVALUE DUP1 ISZERO PUSH2 0x3D2 JUMPI PUSH1 0x0 DUP1 REVERT JUMPDEST POP PUSH2 0x1B1 PUSH2 0xC2A JUMP JUMPDEST CALLVALUE DUP1 ISZERO PUSH2 0x3E7 JUMPI PUSH1 0x0 DUP1 REVERT JUMPDEST POP PUSH2 0x1B1 PUSH2 0x3F6 CALLDATASIZE PUSH1 0x4 PUSH2 0xFF0 JUMP JUMPDEST PUSH1 0x1 PUSH1 0x1 PUSH1 0xA0 SHL SUB AND PUSH1 0x0 SWAP1 DUP2 MSTORE PUSH1 0xA PUSH1 0x20 MSTORE PUSH1 0x40 SWAP1 KECCAK256 SLOAD SWAP1 JUMP JUMPDEST CALLVALUE DUP1 ISZERO PUSH2 0x41D JUMPI PUSH1 0x0 DUP1 REVERT JUMPDEST POP PUSH2 0x1B1 PUSH2 0x42C CALLDATASIZE PUSH1 0x4 PUSH2 0xFF0 JUMP JUMPDEST PUSH1 0xA PUSH1 0x20 MSTORE PUSH1 0x0 SWAP1 DUP2 MSTORE PUSH1 0x40 SWAP1 KECCAK256 SLOAD DUP2 JUMP JUMPDEST CALLVALUE DUP1 ISZERO PUSH2 0x44A JUMPI PUSH1 0x0 DUP1 REVERT JUMPDEST POP PUSH2 0x211 PUSH2 0xC3B JUMP JUMPDEST CALLVALUE DUP1 ISZERO PUSH2 0x45F JUMPI PUSH1 0x0 DUP1 REVERT JUMPDEST POP PUSH1 0x8 SLOAD PUSH2 0x296 SWAP1 PUSH1 0x1 PUSH1 0x1 PUSH1 0xA0 SHL SUB AND DUP2 JUMP JUMPDEST PUSH1 0x6 SLOAD PUSH1 0x1 PUSH1 0x1 PUSH1 0xA0 SHL SUB AND CALLER EQ PUSH2 0x4DD JUMPI PUSH1 0x40 MLOAD PUSH3 0x461BCD PUSH1 0xE5 SHL DUP2 MSTORE PUSH1 0x20 PUSH1 0x4 DUP3 ADD MSTORE PUSH1 0x22 PUSH1 0x24 DUP3 ADD MSTORE PUSH32 0x43616C6C6572206973206E6F7420746865206C6F7474657279206F7065726174 PUSH1 0x44 DUP3 ADD MSTORE PUSH2 0x37B9 PUSH1 0xF1 SHL PUSH1 0x64 DUP3 ADD MSTORE PUSH1 0x84 ADD JUMPDEST PUSH1 0x40 MLOAD DUP1 SWAP2 SUB SWAP1 REVERT JUMPDEST PUSH1 0x7 DUP1 SLOAD PUSH1 0x0 SWAP2 DUP3 SWAP1 SSTORE PUSH1 0x40 MLOAD CALLER SWAP3 DUP4 SWAP2 DUP4 ISZERO PUSH2 0x8FC MUL SWAP2 DUP5 SWAP2 SWAP1 DUP2 DUP2 DUP2 DUP6 DUP9 DUP9 CALL SWAP4 POP POP POP POP ISZERO DUP1 ISZERO PUSH2 0x515 JUMPI RETURNDATASIZE PUSH1 0x0 DUP1 RETURNDATACOPY RETURNDATASIZE PUSH1 0x0 REVERT JUMPDEST POP POP POP JUMP JUMPDEST PUSH1 0x6 SLOAD PUSH1 0x1 PUSH1 0x1 PUSH1 0xA0 SHL SUB AND CALLER EQ PUSH2 0x57F JUMPI PUSH1 0x40 MLOAD PUSH3 0x461BCD PUSH1 0xE5 SHL DUP2 MSTORE PUSH1 0x20 PUSH1 0x4 DUP3 ADD MSTORE PUSH1 0x22 PUSH1 0x24 DUP3 ADD MSTORE PUSH32 0x43616C6C6572206973206E6F7420746865206C6F7474657279206F7065726174 PUSH1 0x44 DUP3 ADD MSTORE PUSH2 0x37B9 PUSH1 0xF1 SHL PUSH1 0x64 DUP3 ADD MSTORE PUSH1 0x84 ADD PUSH2 0x4D4 JUMP JUMPDEST PUSH1 0xB SLOAD PUSH2 0x5CE JUMPI PUSH1 0x40 MLOAD PUSH3 0x461BCD PUSH1 0xE5 SHL DUP2 MSTORE PUSH1 0x20 PUSH1 0x4 DUP3 ADD MSTORE PUSH1 0x19 PUSH1 0x24 DUP3 ADD MSTORE PUSH32 0x4E6F207469636B65747320776572652070757263686173656400000000000000 PUSH1 0x44 DUP3 ADD MSTORE PUSH1 0x64 ADD PUSH2 0x4D4 JUMP JUMPDEST PUSH1 0xB SLOAD PUSH1 0x0 SWAP1 PUSH2 0x5DE SWAP1 NUMBER PUSH2 0x1036 JUMP JUMPDEST PUSH1 0x40 DUP1 MLOAD TIMESTAMP PUSH1 0x20 DUP3 ADD MSTORE SWAP2 BLOCKHASH SWAP1 DUP3 ADD DUP2 SWAP1 MSTORE SWAP2 POP PUSH1 0x0 SWAP1 PUSH1 0x60 ADD PUSH1 0x40 DUP1 MLOAD PUSH1 0x1F NOT DUP2 DUP5 SUB ADD DUP2 MSTORE SWAP2 SWAP1 MSTORE DUP1 MLOAD PUSH1 0x20 SWAP1 SWAP2 ADD KECCAK256 PUSH1 0xB SLOAD SWAP1 SWAP2 POP PUSH1 0x0 SWAP1 PUSH2 0x623 SWAP1 DUP4 PUSH2 0x105F JUMP JUMPDEST SWAP1 POP PUSH1 0x0 PUSH1 0xB DUP3 DUP2 SLOAD DUP2 LT PUSH2 0x63A JUMPI PUSH2 0x63A PUSH2 0x1073 JUMP JUMPDEST PUSH1 0x0 SWAP2 DUP3 MSTORE PUSH1 0x20 DUP3 KECCAK256 ADD SLOAD PUSH1 0x8 DUP1 SLOAD PUSH20 0xFFFFFFFFFFFFFFFFFFFFFFFFFFFFFFFFFFFFFFFF NOT AND PUSH1 0x1 PUSH1 0x1 PUSH1 0xA0 SHL SUB SWAP1 SWAP3 AND SWAP2 DUP3 OR SWAP1 SSTORE PUSH1 0x2 SLOAD SWAP2 SLOAD SWAP1 SWAP3 POP PUSH2 0x682 SWAP2 SWAP1 PUSH2 0x1036 JUMP JUMPDEST PUSH1 0xB SLOAD PUSH2 0x68F SWAP2 SWAP1 PUSH2 0x1089 JUMP JUMPDEST PUSH1 0x1 PUSH1 0x1 PUSH1 0xA0 SHL SUB DUP3 AND PUSH1 0x0 SWAP1 DUP2 MSTORE PUSH1 0xA PUSH1 0x20 MSTORE PUSH1 0x40 DUP2 KECCAK256 DUP1 SLOAD SWAP1 SWAP2 SWAP1 PUSH2 0x6B7 SWAP1 DUP5 SWAP1 PUSH2 0x10A0 JUMP JUMPDEST SWAP1 SWAP2 SSTORE POP POP PUSH1 0x1 PUSH1 0x1 PUSH1 0xA0 SHL SUB DUP2 AND PUSH1 0x0 SWAP1 DUP2 MSTORE PUSH1 0xA PUSH1 0x20 MSTORE PUSH1 0x40 SWAP1 KECCAK256 SLOAD PUSH1 0x9 SSTORE PUSH1 0x2 SLOAD PUSH1 0xB SLOAD PUSH2 0x6E8 SWAP2 SWAP1 PUSH2 0x1089 JUMP JUMPDEST PUSH1 0x7 PUSH1 0x0 DUP3 DUP3 SLOAD PUSH2 0x6F9 SWAP2 SWAP1 PUSH2 0x10A0 JUMP JUMPDEST SWAP1 SWAP2 SSTORE POP PUSH2 0x70B SWAP1 POP PUSH1 0xB PUSH1 0x0 PUSH2 0xF24 JUMP JUMPDEST PUSH1 0x3 SLOAD PUSH2 0x718 SWAP1 TIMESTAMP PUSH2 0x10A0 JUMP JUMPDEST PUSH1 0x5 SSTORE POP POP POP POP JUMP JUMPDEST PUSH1 0x60 PUSH1 0xB DUP1 SLOAD DUP1 PUSH1 0x20 MUL PUSH1 0x20 ADD PUSH1 0x40 MLOAD SWAP1 DUP2 ADD PUSH1 0x40 MSTORE DUP1 SWAP3 SWAP2 SWAP1 DUP2 DUP2 MSTORE PUSH1 0x20 ADD DUP3 DUP1 SLOAD DUP1 ISZERO PUSH2 0x779 JUMPI PUSH1 0x20 MUL DUP3 ADD SWAP2 SWAP1 PUSH1 0x0 MSTORE PUSH1 0x20 PUSH1 0x0 KECCAK256 SWAP1 JUMPDEST DUP2 SLOAD PUSH1 0x1 PUSH1 0x1 PUSH1 0xA0 SHL SUB AND DUP2 MSTORE PUSH1 0x1 SWAP1 SWAP2 ADD SWAP1 PUSH1 0x20 ADD DUP1 DUP4 GT PUSH2 0x75B JUMPI JUMPDEST POP POP POP POP POP SWAP1 POP SWAP1 JUMP JUMPDEST PUSH1 0xB DUP2 DUP2 SLOAD DUP2 LT PUSH2 0x793 JUMPI PUSH1 0x0 DUP1 REVERT JUMPDEST PUSH1 0x0 SWAP2 DUP3 MSTORE PUSH1 0x20 SWAP1 SWAP2 KECCAK256 ADD SLOAD PUSH1 0x1 PUSH1 0x1 PUSH1 0xA0 SHL SUB AND SWAP1 POP DUP2 JUMP JUMPDEST CALLER PUSH1 0x0 SWAP1 DUP2 MSTORE PUSH1 0xA PUSH1 0x20 MSTORE PUSH1 0x40 SWAP1 KECCAK256 SLOAD PUSH2 0x809 JUMPI PUSH1 0x40 MLOAD PUSH3 0x461BCD PUSH1 0xE5 SHL DUP2 MSTORE PUSH1 0x20 PUSH1 0x4 DUP3 ADD MSTORE PUSH1 0x16 PUSH1 0x24 DUP3 ADD MSTORE PUSH32 0x43616C6C6572206973206E6F7420612077696E6E657200000000000000000000 PUSH1 0x44 DUP3 ADD MSTORE PUSH1 0x64 ADD PUSH2 0x4D4 JUMP JUMPDEST CALLER PUSH1 0x0 DUP2 DUP2 MSTORE PUSH1 0xA PUSH1 0x20 MSTORE PUSH1 0x40 DUP1 DUP3 KECCAK256 DUP1 SLOAD SWAP1 DUP4 SWAP1 SSTORE SWAP1 MLOAD SWAP1 SWAP2 DUP4 SWAP2 DUP4 ISZERO PUSH2 0x8FC MUL SWAP2 DUP5 SWAP2 SWAP1 DUP2 DUP2 DUP2 DUP6 DUP9 DUP9 CALL SWAP4 POP POP POP POP ISZERO DUP1 ISZERO PUSH2 0x515 JUMPI RETURNDATASIZE PUSH1 0x0 DUP1 RETURNDATACOPY RETURNDATASIZE PUSH1 0x0 REVERT JUMPDEST PUSH1 0xB SLOAD ISZERO DUP1 ISZERO PUSH2 0x85E JUMPI POP PUSH1 0x5 SLOAD TIMESTAMP LT ISZERO JUMPDEST ISZERO PUSH2 0x874 JUMPI PUSH1 0x3 SLOAD PUSH2 0x870 SWAP1 TIMESTAMP PUSH2 0x10A0 JUMP JUMPDEST PUSH1 0x5 SSTORE JUMPDEST PUSH1 0x0 SLOAD PUSH2 0x881 SWAP1 CALLVALUE PUSH2 0x105F JUMP JUMPDEST PUSH1 0x0 EQ PUSH2 0x88F PUSH1 0x0 SLOAD PUSH2 0xD34 JUMP JUMPDEST PUSH1 0x40 MLOAD PUSH1 0x20 ADD PUSH2 0x89F SWAP2 SWAP1 PUSH2 0x10D7 JUMP JUMPDEST PUSH1 0x40 MLOAD PUSH1 0x20 DUP2 DUP4 SUB SUB DUP2 MSTORE SWAP1 PUSH1 0x40 MSTORE SWAP1 PUSH2 0x8CC JUMPI PUSH1 0x40 MLOAD PUSH3 0x461BCD PUSH1 0xE5 SHL DUP2 MSTORE PUSH1 0x4 ADD PUSH2 0x4D4 SWAP2 SWAP1 PUSH2 0x1143 JUMP JUMPDEST POP PUSH1 0x0 DUP1 SLOAD PUSH2 0x8DB SWAP1 CALLVALUE PUSH2 0x1176 JUMP JUMPDEST SWAP1 POP PUSH2 0x8E5 PUSH2 0xA13 JUMP JUMPDEST DUP2 GT ISZERO PUSH2 0x934 JUMPI PUSH1 0x40 MLOAD PUSH3 0x461BCD PUSH1 0xE5 SHL DUP2 MSTORE PUSH1 0x20 PUSH1 0x4 DUP3 ADD MSTORE PUSH1 0x1D PUSH1 0x24 DUP3 ADD MSTORE PUSH32 0x4E6F7420656E6F756768207469636B65747320617661696C61626C652E000000 PUSH1 0x44 DUP3 ADD MSTORE PUSH1 0x64 ADD PUSH2 0x4D4 JUMP JUMPDEST PUSH1 0x4 SLOAD DUP2 PUSH2 0x941 CALLER PUSH2 0xDD4 JUMP JUMPDEST PUSH2 0x94B SWAP2 SWAP1 PUSH2 0x10A0 JUMP JUMPDEST GT ISZERO PUSH2 0x9A3 JUMPI PUSH1 0x40 MLOAD PUSH3 0x461BCD PUSH1 0xE5 SHL DUP2 MSTORE PUSH1 0x20 PUSH1 0x4 DUP3 ADD MSTORE PUSH1 0x21 PUSH1 0x24 DUP3 ADD MSTORE PUSH32 0x4D6178207469636B657473207065722061646472657373206578636565646564 PUSH1 0x44 DUP3 ADD MSTORE PUSH1 0x17 PUSH1 0xF9 SHL PUSH1 0x64 DUP3 ADD MSTORE PUSH1 0x84 ADD PUSH2 0x4D4 JUMP JUMPDEST PUSH1 0x0 JUMPDEST DUP2 DUP2 LT ISZERO PUSH2 0xA0F JUMPI PUSH1 0xB DUP1 SLOAD PUSH1 0x1 DUP2 ADD DUP3 SSTORE PUSH1 0x0 SWAP2 SWAP1 SWAP2 MSTORE PUSH32 0x175B7A638427703F0DBE7BB9BBF987A2551717B34E79F33B5B1008D1FA01DB9 ADD DUP1 SLOAD PUSH20 0xFFFFFFFFFFFFFFFFFFFFFFFFFFFFFFFFFFFFFFFF NOT AND CALLER OR SWAP1 SSTORE DUP1 PUSH2 0xA07 DUP2 PUSH2 0x118A JUMP JUMPDEST SWAP2 POP POP PUSH2 0x9A6 JUMP JUMPDEST POP POP JUMP JUMPDEST PUSH1 0xB SLOAD PUSH1 0x1 SLOAD PUSH1 0x0 SWAP2 PUSH2 0xA25 SWAP2 PUSH2 0x1036 JUMP JUMPDEST SWAP1 POP SWAP1 JUMP JUMPDEST PUSH1 0x6 SLOAD PUSH1 0x1 PUSH1 0x1 PUSH1 0xA0 SHL SUB AND CALLER EQ PUSH2 0xA8F JUMPI PUSH1 0x40 MLOAD PUSH3 0x461BCD PUSH1 0xE5 SHL DUP2 MSTORE PUSH1 0x20 PUSH1 0x4 DUP3 ADD MSTORE PUSH1 0x22 PUSH1 0x24 DUP3 ADD MSTORE PUSH32 0x43616C6C6572206973206E6F7420746865206C6F7474657279206F7065726174 PUSH1 0x44 DUP3 ADD MSTORE PUSH2 0x37B9 PUSH1 0xF1 SHL PUSH1 0x64 DUP3 ADD MSTORE PUSH1 0x84 ADD PUSH2 0x4D4 JUMP JUMPDEST PUSH1 0x4 SSTORE JUMP JUMPDEST PUSH1 0x6 SLOAD PUSH1 0x1 PUSH1 0x1 PUSH1 0xA0 SHL SUB AND CALLER EQ PUSH2 0xAF9 JUMPI PUSH1 0x40 MLOAD PUSH3 0x461BCD PUSH1 0xE5 SHL DUP2 MSTORE PUSH1 0x20 PUSH1 0x4 DUP3 ADD MSTORE PUSH1 0x22 PUSH1 0x24 DUP3 ADD MSTORE PUSH32 0x43616C6C6572206973206E6F7420746865206C6F7474657279206F7065726174 PUSH1 0x44 DUP3 ADD MSTORE PUSH2 0x37B9 PUSH1 0xF1 SHL PUSH1 0x64 DUP3 ADD MSTORE PUSH1 0x84 ADD PUSH2 0x4D4 JUMP JUMPDEST PUSH1 0x0 SWAP3 SWAP1 SWAP3 SSTORE PUSH1 0x1 SSTORE PUSH1 0x2 SSTORE JUMP JUMPDEST PUSH1 0x5 SLOAD TIMESTAMP LT ISZERO PUSH2 0xB59 JUMPI PUSH1 0x40 MLOAD PUSH3 0x461BCD PUSH1 0xE5 SHL DUP2 MSTORE PUSH1 0x20 PUSH1 0x4 DUP3 ADD MSTORE PUSH1 0x1B PUSH1 0x24 DUP3 ADD MSTORE PUSH32 0x746865206C6F7474657279206E6F742065787069726564207965740000000000 PUSH1 0x44 DUP3 ADD MSTORE PUSH1 0x64 ADD PUSH2 0x4D4 JUMP JUMPDEST PUSH1 0x0 JUMPDEST PUSH1 0xB SLOAD DUP2 LT ISZERO PUSH2 0xC1B JUMPI PUSH1 0x0 PUSH1 0xB DUP3 DUP2 SLOAD DUP2 LT PUSH2 0xB7B JUMPI PUSH2 0xB7B PUSH2 0x1073 JUMP JUMPDEST PUSH1 0x0 SWAP2 DUP3 MSTORE PUSH1 0x20 DUP3 KECCAK256 ADD SLOAD PUSH1 0xB DUP1 SLOAD PUSH1 0x1 PUSH1 0x1 PUSH1 0xA0 SHL SUB SWAP1 SWAP3 AND SWAP4 POP SWAP1 DUP5 SWAP1 DUP2 LT PUSH2 0xBA8 JUMPI PUSH2 0xBA8 PUSH2 0x1073 JUMP JUMPDEST PUSH1 0x0 SWAP2 DUP3 MSTORE PUSH1 0x20 DUP3 KECCAK256 ADD DUP1 SLOAD PUSH20 0xFFFFFFFFFFFFFFFFFFFFFFFFFFFFFFFFFFFFFFFF NOT AND PUSH1 0x1 PUSH1 0x1 PUSH1 0xA0 SHL SUB SWAP4 DUP5 AND OR SWAP1 SSTORE DUP1 SLOAD PUSH1 0x40 MLOAD SWAP3 DUP5 AND SWAP3 PUSH2 0x8FC DUP3 ISZERO MUL SWAP3 DUP2 DUP2 DUP2 DUP6 DUP9 DUP9 CALL SWAP4 POP POP POP POP ISZERO DUP1 ISZERO PUSH2 0xC06 JUMPI RETURNDATASIZE PUSH1 0x0 DUP1 RETURNDATACOPY RETURNDATASIZE PUSH1 0x0 REVERT JUMPDEST POP POP DUP1 DUP1 PUSH2 0xC13 SWAP1 PUSH2 0x118A JUMP JUMPDEST SWAP2 POP POP PUSH2 0xB5C JUMP JUMPDEST POP PUSH2 0xC28 PUSH1 0xB PUSH1 0x0 PUSH2 0xF24 JUMP JUMPDEST JUMP JUMPDEST PUSH1 0x0 DUP1 SLOAD PUSH1 0xB SLOAD PUSH2 0xA25 SWAP2 SWAP1 PUSH2 0x1089 JUMP JUMPDEST PUSH1 0x6 SLOAD PUSH1 0x1 PUSH1 0x1 PUSH1 0xA0 SHL SUB AND CALLER EQ PUSH2 0xCA0 JUMPI PUSH1 0x40 MLOAD PUSH3 0x461BCD PUSH1 0xE5 SHL DUP2 MSTORE PUSH1 0x20 PUSH1 0x4 DUP3 ADD MSTORE PUSH1 0x22 PUSH1 0x24 DUP3 ADD MSTORE PUSH32 0x43616C6C6572206973206E6F7420746865206C6F7474657279206F7065726174 PUSH1 0x44 DUP3 ADD MSTORE PUSH2 0x37B9 PUSH1 0xF1 SHL PUSH1 0x64 DUP3 ADD MSTORE PUSH1 0x84 ADD PUSH2 0x4D4 JUMP JUMPDEST PUSH1 0xB SLOAD ISZERO PUSH2 0xD16 JUMPI PUSH1 0x40 MLOAD PUSH3 0x461BCD PUSH1 0xE5 SHL DUP2 MSTORE PUSH1 0x20 PUSH1 0x4 DUP3 ADD MSTORE PUSH1 0x26 PUSH1 0x24 DUP3 ADD MSTORE PUSH32 0x43616E6E6F742052657374617274204472617720617320447261772069732069 PUSH1 0x44 DUP3 ADD MSTORE PUSH32 0x6E20706C61790000000000000000000000000000000000000000000000000000 PUSH1 0x64 DUP3 ADD MSTORE PUSH1 0x84 ADD PUSH2 0x4D4 JUMP JUMPDEST PUSH2 0xD22 PUSH1 0xB PUSH1 0x0 PUSH2 0xF24 JUMP JUMPDEST PUSH1 0x3 SLOAD PUSH2 0xD2F SWAP1 TIMESTAMP PUSH2 0x10A0 JUMP JUMPDEST PUSH1 0x5 SSTORE JUMP JUMPDEST PUSH1 0x60 PUSH1 0x0 PUSH2 0xD41 DUP4 PUSH2 0xE41 JUMP JUMPDEST PUSH1 0x1 ADD SWAP1 POP PUSH1 0x0 DUP2 PUSH8 0xFFFFFFFFFFFFFFFF DUP2 GT ISZERO PUSH2 0xD61 JUMPI PUSH2 0xD61 PUSH2 0x11A3 JUMP JUMPDEST PUSH1 0x40 MLOAD SWAP1 DUP1 DUP3 MSTORE DUP1 PUSH1 0x1F ADD PUSH1 0x1F NOT AND PUSH1 0x20 ADD DUP3 ADD PUSH1 0x40 MSTORE DUP1 ISZERO PUSH2 0xD8B JUMPI PUSH1 0x20 DUP3 ADD DUP2 DUP1 CALLDATASIZE DUP4 CALLDATACOPY ADD SWAP1 POP JUMPDEST POP SWAP1 POP DUP2 DUP2 ADD PUSH1 0x20 ADD JUMPDEST PUSH1 0x0 NOT ADD PUSH32 0x3031323334353637383961626364656600000000000000000000000000000000 PUSH1 0xA DUP7 MOD BYTE DUP2 MSTORE8 PUSH1 0xA DUP6 DIV SWAP5 POP DUP5 PUSH2 0xD95 JUMPI POP SWAP4 SWAP3 POP POP POP JUMP JUMPDEST PUSH1 0x0 DUP1 DUP1 JUMPDEST PUSH1 0xB SLOAD DUP2 LT ISZERO PUSH2 0xE3A JUMPI DUP4 PUSH1 0x1 PUSH1 0x1 PUSH1 0xA0 SHL SUB AND PUSH1 0xB DUP3 DUP2 SLOAD DUP2 LT PUSH2 0xE00 JUMPI PUSH2 0xE00 PUSH2 0x1073 JUMP JUMPDEST PUSH1 0x0 SWAP2 DUP3 MSTORE PUSH1 0x20 SWAP1 SWAP2 KECCAK256 ADD SLOAD PUSH1 0x1 PUSH1 0x1 PUSH1 0xA0 SHL SUB AND SUB PUSH2 0xE28 JUMPI DUP2 PUSH2 0xE24 DUP2 PUSH2 0x118A JUMP JUMPDEST SWAP3 POP POP JUMPDEST DUP1 PUSH2 0xE32 DUP2 PUSH2 0x118A JUMP JUMPDEST SWAP2 POP POP PUSH2 0xDD9 JUMP JUMPDEST POP SWAP3 SWAP2 POP POP JUMP JUMPDEST PUSH1 0x0 DUP1 PUSH27 0x184F03E93FF9F4DAA797ED6E38ED64BF6A1F010000000000000000 DUP4 LT PUSH2 0xE8A JUMPI PUSH27 0x184F03E93FF9F4DAA797ED6E38ED64BF6A1F010000000000000000 DUP4 DIV SWAP3 POP PUSH1 0x40 ADD JUMPDEST PUSH14 0x4EE2D6D415B85ACEF8100000000 DUP4 LT PUSH2 0xEB6 JUMPI PUSH14 0x4EE2D6D415B85ACEF8100000000 DUP4 DIV SWAP3 POP PUSH1 0x20 ADD JUMPDEST PUSH7 0x2386F26FC10000 DUP4 LT PUSH2 0xED4 JUMPI PUSH7 0x2386F26FC10000 DUP4 DIV SWAP3 POP PUSH1 0x10 ADD JUMPDEST PUSH4 0x5F5E100 DUP4 LT PUSH2 0xEEC JUMPI PUSH4 0x5F5E100 DUP4 DIV SWAP3 POP PUSH1 0x8 ADD JUMPDEST PUSH2 0x2710 DUP4 LT PUSH2 0xF00 JUMPI PUSH2 0x2710 DUP4 DIV SWAP3 POP PUSH1 0x4 ADD JUMPDEST PUSH1 0x64 DUP4 LT PUSH2 0xF12 JUMPI PUSH1 0x64 DUP4 DIV SWAP3 POP PUSH1 0x2 ADD JUMPDEST PUSH1 0xA DUP4 LT PUSH2 0xF1E JUMPI PUSH1 0x1 ADD JUMPDEST SWAP3 SWAP2 POP POP JUMP JUMPDEST POP DUP1 SLOAD PUSH1 0x0 DUP3 SSTORE SWAP1 PUSH1 0x0 MSTORE PUSH1 0x20 PUSH1 0x0 KECCAK256 SWAP1 DUP2 ADD SWAP1 PUSH2 0xF42 SWAP2 SWAP1 PUSH2 0xF45 JUMP JUMPDEST POP JUMP JUMPDEST JUMPDEST DUP1 DUP3 GT ISZERO PUSH2 0xF5A JUMPI PUSH1 0x0 DUP2 SSTORE PUSH1 0x1 ADD PUSH2 0xF46 JUMP JUMPDEST POP SWAP1 JUMP JUMPDEST PUSH1 0x20 DUP1 DUP3 MSTORE DUP3 MLOAD DUP3 DUP3 ADD DUP2 SWAP1 MSTORE PUSH1 0x0 SWAP2 SWAP1 DUP5 DUP3 ADD SWAP1 PUSH1 0x40 DUP6 ADD SWAP1 DUP5 JUMPDEST DUP2 DUP2 LT ISZERO PUSH2 0xF9F JUMPI DUP4 MLOAD PUSH1 0x1 PUSH1 0x1 PUSH1 0xA0 SHL SUB AND DUP4 MSTORE SWAP3 DUP5 ADD SWAP3 SWAP2 DUP5 ADD SWAP2 PUSH1 0x1 ADD PUSH2 0xF7A JUMP JUMPDEST POP SWAP1 SWAP7 SWAP6 POP POP POP POP POP POP JUMP JUMPDEST PUSH1 0x0 PUSH1 0x20 DUP3 DUP5 SUB SLT ISZERO PUSH2 0xFBD JUMPI PUSH1 0x0 DUP1 REVERT JUMPDEST POP CALLDATALOAD SWAP2 SWAP1 POP JUMP JUMPDEST PUSH1 0x0 DUP1 PUSH1 0x0 PUSH1 0x60 DUP5 DUP7 SUB SLT ISZERO PUSH2 0xFD9 JUMPI PUSH1 0x0 DUP1 REVERT JUMPDEST POP POP DUP2 CALLDATALOAD SWAP4 PUSH1 0x20 DUP4 ADD CALLDATALOAD SWAP4 POP PUSH1 0x40 SWAP1 SWAP3 ADD CALLDATALOAD SWAP2 SWAP1 POP JUMP JUMPDEST PUSH1 0x0 PUSH1 0x20 DUP3 DUP5 SUB SLT ISZERO PUSH2 0x1002 JUMPI PUSH1 0x0 DUP1 REVERT JUMPDEST DUP2 CALLDATALOAD PUSH1 0x1 PUSH1 0x1 PUSH1 0xA0 SHL SUB DUP2 AND DUP2 EQ PUSH2 0x1019 JUMPI PUSH1 0x0 DUP1 REVERT JUMPDEST SWAP4 SWAP3 POP POP POP JUMP JUMPDEST PUSH4 0x4E487B71 PUSH1 0xE0 SHL PUSH1 0x0 MSTORE PUSH1 0x11 PUSH1 0x4 MSTORE PUSH1 0x24 PUSH1 0x0 REVERT JUMPDEST DUP2 DUP2 SUB DUP2 DUP2 GT ISZERO PUSH2 0xF1E JUMPI PUSH2 0xF1E PUSH2 0x1020 JUMP JUMPDEST PUSH4 0x4E487B71 PUSH1 0xE0 SHL PUSH1 0x0 MSTORE PUSH1 0x12 PUSH1 0x4 MSTORE PUSH1 0x24 PUSH1 0x0 REVERT JUMPDEST PUSH1 0x0 DUP3 PUSH2 0x106E JUMPI PUSH2 0x106E PUSH2 0x1049 JUMP JUMPDEST POP MOD SWAP1 JUMP JUMPDEST PUSH4 0x4E487B71 PUSH1 0xE0 SHL PUSH1 0x0 MSTORE PUSH1 0x32 PUSH1 0x4 MSTORE PUSH1 0x24 PUSH1 0x0 REVERT JUMPDEST DUP1 DUP3 MUL DUP2 ISZERO DUP3 DUP3 DIV DUP5 EQ OR PUSH2 0xF1E JUMPI PUSH2 0xF1E PUSH2 0x1020 JUMP JUMPDEST DUP1 DUP3 ADD DUP1 DUP3 GT ISZERO PUSH2 0xF1E JUMPI PUSH2 0xF1E PUSH2 0x1020 JUMP JUMPDEST PUSH1 0x0 JUMPDEST DUP4 DUP2 LT ISZERO PUSH2 0x10CE JUMPI DUP2 DUP2 ADD MLOAD DUP4 DUP3 ADD MSTORE PUSH1 0x20 ADD PUSH2 0x10B6 JUMP JUMPDEST POP POP PUSH1 0x0 SWAP2 ADD MSTORE JUMP JUMPDEST PUSH32 0x7468652076616C7565206D757374206265206D756C7469706C65206F66200000 DUP2 MSTORE PUSH1 0x0 DUP3 MLOAD PUSH2 0x110F DUP2 PUSH1 0x1E DUP6 ADD PUSH1 0x20 DUP8 ADD PUSH2 0x10B3 JUMP JUMPDEST PUSH32 0x2045746865720000000000000000000000000000000000000000000000000000 PUSH1 0x1E SWAP4 SWAP1 SWAP2 ADD SWAP3 DUP4 ADD MSTORE POP PUSH1 0x24 ADD SWAP2 SWAP1 POP JUMP JUMPDEST PUSH1 0x20 DUP2 MSTORE PUSH1 0x0 DUP3 MLOAD DUP1 PUSH1 0x20 DUP5 ADD MSTORE PUSH2 0x1162 DUP2 PUSH1 0x40 DUP6 ADD PUSH1 0x20 DUP8 ADD PUSH2 0x10B3 JUMP JUMPDEST PUSH1 0x1F ADD PUSH1 0x1F NOT AND SWAP2 SWAP1 SWAP2 ADD PUSH1 0x40 ADD SWAP3 SWAP2 POP POP JUMP JUMPDEST PUSH1 0x0 DUP3 PUSH2 0x1185 JUMPI PUSH2 0x1185 PUSH2 0x1049 JUMP JUMPDEST POP DIV SWAP1 JUMP JUMPDEST PUSH1 0x0 PUSH1 0x1 DUP3 ADD PUSH2 0x119C JUMPI PUSH2 0x119C PUSH2 0x1020 JUMP JUMPDEST POP PUSH1 0x1 ADD SWAP1 JUMP JUMPDEST PUSH4 0x4E487B71 PUSH1 0xE0 SHL PUSH1 0x0 MSTORE PUSH1 0x41 PUSH1 0x4 MSTORE PUSH1 0x24 PUSH1 0x0 REVERT INVALID LOG2 PUSH5 0x6970667358 0x22 SLT KECCAK256 DUP14 DUP14 DUP1 BASEFEE NOT PUSH15 0x6273EF970F01D2D8E8F3F53239B149 RETURN NOT 0x4D 0xE0 0xA8 CALLCODE SWAP15 PUSH6 0xE3592164736F PUSH13 0x63430008110033000000000000 "
    },
    "gasEstimates": {
      "creation": {
        "codeDepositCost": "918200",
        "executionCost": "165018",
        "totalCost": "1083218"
      },
      "external": {
        "BuyTickets()": "infinite",
        "CurrentWinningReward()": "4587",
        "DrawWinnerTicket()": "infinite",
        "IsWinner()": "2450",
        "RefundAll()": "infinite",
        "RemainingTickets()": "4550",
        "WithdrawCommission()": "infinite",
        "WithdrawWinnings()": "infinite",
        "checkWinningsAmount()": "2418",
        "expiration()": "2374",
        "getTickets()": "infinite",
        "getWinningsForAddress(address)": "2535",
        "lastWinner()": "2447",
        "lastWinnerAmount()": "2331",
        "lotteryOperator()": "2382",
        "maxTickets()": "2373",
        "maxTicketsPerAddress()": "2352",
        "operatorTotalCommission()": "2351",
        "restartDraw()": "infinite",
        "setMaxTicketsPerAddress(uint256)": "24509",
        "ticketCommission()": "2351",
        "ticketPrice()": "2375",
        "tickets(uint256)": "4704",
        "updateLotteryParams(uint256,uint256,uint256)": "68792",
        "winnings(address)": "2539"
      },
      "internal": {
        "getNumTicketsPerAddress(address)": "infinite"
      }
    },
    "methodIdentifiers": {
      "BuyTickets()": "91d8b14e",
      "CurrentWinningReward()": "c6944fa0",
      "DrawWinnerTicket()": "4788af7c",
      "IsWinner()": "96c85ef3",
      "RefundAll()": "a88f4672",
      "RemainingTickets()": "93a563b5",
      "WithdrawCommission()": "35580df2",
      "WithdrawWinnings()": "71827b7b",
      "checkWinningsAmount()": "0789c607",
      "expiration()": "4665096d",
      "getTickets()": "4ed02622",
      "getWinningsForAddress(address)": "dd64e534",
      "lastWinner()": "fe188184",
      "lastWinnerAmount()": "06f7f3bf",
      "lotteryOperator()": "5a58acdd",
      "maxTickets()": "9b894703",
      "maxTicketsPerAddress()": "463a94a5",
      "operatorTotalCommission()": "ba946d79",
      "restartDraw()": "f2613269",
      "setMaxTicketsPerAddress(uint256)": "9802cf2f",
      "ticketCommission()": "6032a4f9",
      "ticketPrice()": "1209b1f6",
      "tickets(uint256)": "50b44712",
      "updateLotteryParams(uint256,uint256,uint256)": "9b478ab0",
      "winnings(address)": "ea3a1499"
    }
  },
  "storageLayout": {
    "storage": [
      {
        "astId": 5,
        "contract": "Anntdraw.sol:Lottery",
        "label": "ticketPrice",
        "offset": 0,
        "slot": "0",
        "type": "t_uint256"
      },
      {
        "astId": 8,
        "contract": "Anntdraw.sol:Lottery",
        "label": "maxTickets",
        "offset": 0,
        "slot": "1",
        "type": "t_uint256"
      },
      {
        "astId": 11,
        "contract": "Anntdraw.sol:Lottery",
        "label": "ticketCommission",
        "offset": 0,
        "slot": "2",
        "type": "t_uint256"
      },
      {
        "astId": 14,
        "contract": "Anntdraw.sol:Lottery",
        "label": "duration",
        "offset": 0,
        "slot": "3",
        "type": "t_uint256"
      },
      {
        "astId": 17,
        "contract": "Anntdraw.sol:Lottery",
        "label": "maxTicketsPerAddress",
        "offset": 0,
        "slot": "4",
        "type": "t_uint256"
      },
      {
        "astId": 19,
        "contract": "Anntdraw.sol:Lottery",
        "label": "expiration",
        "offset": 0,
        "slot": "5",
        "type": "t_uint256"
      },
      {
        "astId": 21,
        "contract": "Anntdraw.sol:Lottery",
        "label": "lotteryOperator",
        "offset": 0,
        "slot": "6",
        "type": "t_address"
      },
      {
        "astId": 24,
        "contract": "Anntdraw.sol:Lottery",
        "label": "operatorTotalCommission",
        "offset": 0,
        "slot": "7",
        "type": "t_uint256"
      },
      {
        "astId": 26,
        "contract": "Anntdraw.sol:Lottery",
        "label": "lastWinner",
        "offset": 0,
        "slot": "8",
        "type": "t_address"
      },
      {
        "astId": 28,
        "contract": "Anntdraw.sol:Lottery",
        "label": "lastWinnerAmount",
        "offset": 0,
        "slot": "9",
        "type": "t_uint256"
      },
      {
        "astId": 32,
        "contract": "Anntdraw.sol:Lottery",
        "label": "winnings",
        "offset": 0,
        "slot": "10",
        "type": "t_mapping(t_address,t_uint256)"
      },
      {
        "astId": 35,
        "contract": "Anntdraw.sol:Lottery",
        "label": "tickets",
        "offset": 0,
        "slot": "11",
        "type": "t_array(t_address)dyn_storage"
      }
    ],
    "types": {
      "t_address": {
        "encoding": "inplace",
        "label": "address",
        "numberOfBytes": "20"
      },
      "t_array(t_address)dyn_storage": {
        "base": "t_address",
        "encoding": "dynamic_array",
        "label": "address[]",
        "numberOfBytes": "32"
      },
      "t_mapping(t_address,t_uint256)": {
        "encoding": "mapping",
        "key": "t_address",
        "label": "mapping(address => uint256)",
        "numberOfBytes": "32",
        "value": "t_uint256"
      },
      "t_uint256": {
        "encoding": "inplace",
        "label": "uint256",
        "numberOfBytes": "32"
      }
    }
  },
  "userdoc": {
    "kind": "user",
    "methods": {},
    "version": 1
  }
}